{
	"contracts/Usuario.sol": {
		"MatrisUsuario": {
			"abi": [
				{
					"inputs": [],
					"stateMutability": "nonpayable",
					"type": "constructor"
				},
				{
					"inputs": [],
					"name": "length",
					"outputs": [
						{
							"internalType": "uint256",
							"name": "",
							"type": "uint256"
						}
					],
					"stateMutability": "view",
					"type": "function"
				},
				{
					"inputs": [],
					"name": "pop",
					"outputs": [],
					"stateMutability": "nonpayable",
					"type": "function"
				},
				{
					"inputs": [
						{
							"internalType": "contract Usuario",
							"name": "_usuario",
							"type": "address"
						}
					],
					"name": "push",
					"outputs": [],
					"stateMutability": "nonpayable",
					"type": "function"
				}
			],
			"devdoc": {
				"kind": "dev",
				"methods": {},
				"version": 1
			},
			"evm": {
				"assembly": "    /* \"contracts/Usuario.sol\":716:1037  contract MatrisUsuario{... */\n  mstore(0x40, 0x80)\n    /* \"contracts/Usuario.sol\":774:797  constructor() public {} */\n  callvalue\n  dup1\n  iszero\n  tag_1\n  jumpi\n  0x00\n  dup1\n  revert\ntag_1:\n  pop\n    /* \"contracts/Usuario.sol\":716:1037  contract MatrisUsuario{... */\n  dataSize(sub_0)\n  dup1\n  dataOffset(sub_0)\n  0x00\n  codecopy\n  0x00\n  return\nstop\n\nsub_0: assembly {\n        /* \"contracts/Usuario.sol\":716:1037  contract MatrisUsuario{... */\n      mstore(0x40, 0x80)\n      callvalue\n      dup1\n      iszero\n      tag_1\n      jumpi\n      0x00\n      dup1\n      revert\n    tag_1:\n      pop\n      jumpi(tag_2, lt(calldatasize, 0x04))\n      shr(0xe0, calldataload(0x00))\n      dup1\n      0x1f7b6d32\n      eq\n      tag_3\n      jumpi\n      dup1\n      0x89b09de7\n      eq\n      tag_4\n      jumpi\n      dup1\n      0xa4ece52c\n      eq\n      tag_5\n      jumpi\n    tag_2:\n      0x00\n      dup1\n      revert\n        /* \"contracts/Usuario.sol\":950:1034  function length() public view returns (uint) {... */\n    tag_3:\n      tag_6\n      tag_7\n      jump\t// in\n    tag_6:\n      mload(0x40)\n      tag_8\n      swap2\n      swap1\n      tag_9\n      jump\t// in\n    tag_8:\n      mload(0x40)\n      dup1\n      swap2\n      sub\n      swap1\n      return\n        /* \"contracts/Usuario.sol\":803:884  function push( Usuario _usuario ) public {... */\n    tag_4:\n      tag_10\n      0x04\n      dup1\n      calldatasize\n      sub\n      dup2\n      add\n      swap1\n      tag_11\n      swap2\n      swap1\n      tag_12\n      jump\t// in\n    tag_11:\n      tag_13\n      jump\t// in\n    tag_10:\n      stop\n        /* \"contracts/Usuario.sol\":890:944  function pop( ) public {... */\n    tag_5:\n      tag_14\n      tag_15\n      jump\t// in\n    tag_14:\n      stop\n        /* \"contracts/Usuario.sol\":950:1034  function length() public view returns (uint) {... */\n    tag_7:\n        /* \"contracts/Usuario.sol\":989:993  uint */\n      0x00\n        /* \"contracts/Usuario.sol\":1012:1020  usuarios */\n      dup1\n        /* \"contracts/Usuario.sol\":1012:1027  usuarios.length */\n      dup1\n      sload\n      swap1\n      pop\n        /* \"contracts/Usuario.sol\":1005:1027  return usuarios.length */\n      swap1\n      pop\n        /* \"contracts/Usuario.sol\":950:1034  function length() public view returns (uint) {... */\n      swap1\n      jump\t// out\n        /* \"contracts/Usuario.sol\":803:884  function push( Usuario _usuario ) public {... */\n    tag_13:\n        /* \"contracts/Usuario.sol\":854:862  usuarios */\n      0x00\n        /* \"contracts/Usuario.sol\":868:876  _usuario */\n      dup2\n        /* \"contracts/Usuario.sol\":854:877  usuarios.push(_usuario) */\n      swap1\n      dup1\n      0x01\n      dup2\n      sload\n      add\n      dup1\n      dup3\n      sstore\n      dup1\n      swap2\n      pop\n      pop\n      0x01\n      swap1\n      sub\n      swap1\n      0x00\n      mstore\n      keccak256(0x00, 0x20)\n      add\n      0x00\n      swap1\n      swap2\n      swap1\n      swap2\n      swap1\n      swap2\n      0x0100\n      exp\n      dup2\n      sload\n      dup2\n      0xffffffffffffffffffffffffffffffffffffffff\n      mul\n      not\n      and\n      swap1\n      dup4\n      0xffffffffffffffffffffffffffffffffffffffff\n      and\n      mul\n      or\n      swap1\n      sstore\n      pop\n        /* \"contracts/Usuario.sol\":803:884  function push( Usuario _usuario ) public {... */\n      pop\n      jump\t// out\n        /* \"contracts/Usuario.sol\":890:944  function pop( ) public {... */\n    tag_15:\n        /* \"contracts/Usuario.sol\":923:931  usuarios */\n      0x00\n        /* \"contracts/Usuario.sol\":923:937  usuarios.pop() */\n      dup1\n      sload\n      dup1\n      tag_20\n      jumpi\n      tag_21\n      tag_22\n      jump\t// in\n    tag_21:\n    tag_20:\n      0x01\n      swap1\n      sub\n      dup2\n      dup2\n      swap1\n      0x00\n      mstore\n      keccak256(0x00, 0x20)\n      add\n      exp(0x0100, 0x00)\n      dup2\n      sload\n      swap1\n      0xffffffffffffffffffffffffffffffffffffffff\n      mul\n      not\n      and\n      swap1\n      sstore\n      swap1\n      sstore\n        /* \"contracts/Usuario.sol\":890:944  function pop( ) public {... */\n      jump\t// out\n        /* \"#utility.yul\":7:174   */\n    tag_25:\n        /* \"#utility.yul\":67:72   */\n      0x00\n        /* \"#utility.yul\":105:111   */\n      dup2\n        /* \"#utility.yul\":92:112   */\n      calldataload\n        /* \"#utility.yul\":83:112   */\n      swap1\n      pop\n        /* \"#utility.yul\":121:168   */\n      tag_27\n        /* \"#utility.yul\":162:167   */\n      dup2\n        /* \"#utility.yul\":121:168   */\n      tag_28\n      jump\t// in\n    tag_27:\n        /* \"#utility.yul\":7:174   */\n      swap3\n      swap2\n      pop\n      pop\n      jump\t// out\n        /* \"#utility.yul\":180:537   */\n    tag_12:\n        /* \"#utility.yul\":253:259   */\n      0x00\n        /* \"#utility.yul\":302:304   */\n      0x20\n        /* \"#utility.yul\":290:299   */\n      dup3\n        /* \"#utility.yul\":281:288   */\n      dup5\n        /* \"#utility.yul\":277:300   */\n      sub\n        /* \"#utility.yul\":273:305   */\n      slt\n        /* \"#utility.yul\":270:389   */\n      iszero\n      tag_30\n      jumpi\n        /* \"#utility.yul\":308:387   */\n      tag_31\n      tag_32\n      jump\t// in\n    tag_31:\n        /* \"#utility.yul\":270:389   */\n    tag_30:\n        /* \"#utility.yul\":428:429   */\n      0x00\n        /* \"#utility.yul\":453:520   */\n      tag_33\n        /* \"#utility.yul\":512:519   */\n      dup5\n        /* \"#utility.yul\":503:509   */\n      dup3\n        /* \"#utility.yul\":492:501   */\n      dup6\n        /* \"#utility.yul\":488:510   */\n      add\n        /* \"#utility.yul\":453:520   */\n      tag_25\n      jump\t// in\n    tag_33:\n        /* \"#utility.yul\":443:520   */\n      swap2\n      pop\n        /* \"#utility.yul\":399:530   */\n      pop\n        /* \"#utility.yul\":180:537   */\n      swap3\n      swap2\n      pop\n      pop\n      jump\t// out\n        /* \"#utility.yul\":543:661   */\n    tag_34:\n        /* \"#utility.yul\":630:654   */\n      tag_36\n        /* \"#utility.yul\":648:653   */\n      dup2\n        /* \"#utility.yul\":630:654   */\n      tag_37\n      jump\t// in\n    tag_36:\n        /* \"#utility.yul\":625:628   */\n      dup3\n        /* \"#utility.yul\":618:655   */\n      mstore\n        /* \"#utility.yul\":543:661   */\n      pop\n      pop\n      jump\t// out\n        /* \"#utility.yul\":667:889   */\n    tag_9:\n        /* \"#utility.yul\":760:764   */\n      0x00\n        /* \"#utility.yul\":798:800   */\n      0x20\n        /* \"#utility.yul\":787:796   */\n      dup3\n        /* \"#utility.yul\":783:801   */\n      add\n        /* \"#utility.yul\":775:801   */\n      swap1\n      pop\n        /* \"#utility.yul\":811:882   */\n      tag_39\n        /* \"#utility.yul\":879:880   */\n      0x00\n        /* \"#utility.yul\":868:877   */\n      dup4\n        /* \"#utility.yul\":864:881   */\n      add\n        /* \"#utility.yul\":855:861   */\n      dup5\n        /* \"#utility.yul\":811:882   */\n      tag_34\n      jump\t// in\n    tag_39:\n        /* \"#utility.yul\":667:889   */\n      swap3\n      swap2\n      pop\n      pop\n      jump\t// out\n        /* \"#utility.yul\":976:1072   */\n    tag_42:\n        /* \"#utility.yul\":1013:1020   */\n      0x00\n        /* \"#utility.yul\":1042:1066   */\n      tag_44\n        /* \"#utility.yul\":1060:1065   */\n      dup3\n        /* \"#utility.yul\":1042:1066   */\n      tag_45\n      jump\t// in\n    tag_44:\n        /* \"#utility.yul\":1031:1066   */\n      swap1\n      pop\n        /* \"#utility.yul\":976:1072   */\n      swap2\n      swap1\n      pop\n      jump\t// out\n        /* \"#utility.yul\":1078:1188   */\n    tag_46:\n        /* \"#utility.yul\":1129:1136   */\n      0x00\n        /* \"#utility.yul\":1158:1182   */\n      tag_48\n        /* \"#utility.yul\":1176:1181   */\n      dup3\n        /* \"#utility.yul\":1158:1182   */\n      tag_42\n      jump\t// in\n    tag_48:\n        /* \"#utility.yul\":1147:1182   */\n      swap1\n      pop\n        /* \"#utility.yul\":1078:1188   */\n      swap2\n      swap1\n      pop\n      jump\t// out\n        /* \"#utility.yul\":1194:1320   */\n    tag_45:\n        /* \"#utility.yul\":1231:1238   */\n      0x00\n        /* \"#utility.yul\":1271:1313   */\n      0xffffffffffffffffffffffffffffffffffffffff\n        /* \"#utility.yul\":1264:1269   */\n      dup3\n        /* \"#utility.yul\":1260:1314   */\n      and\n        /* \"#utility.yul\":1249:1314   */\n      swap1\n      pop\n        /* \"#utility.yul\":1194:1320   */\n      swap2\n      swap1\n      pop\n      jump\t// out\n        /* \"#utility.yul\":1326:1403   */\n    tag_37:\n        /* \"#utility.yul\":1363:1370   */\n      0x00\n        /* \"#utility.yul\":1392:1397   */\n      dup2\n        /* \"#utility.yul\":1381:1397   */\n      swap1\n      pop\n        /* \"#utility.yul\":1326:1403   */\n      swap2\n      swap1\n      pop\n      jump\t// out\n        /* \"#utility.yul\":1409:1589   */\n    tag_22:\n        /* \"#utility.yul\":1457:1534   */\n      0x4e487b7100000000000000000000000000000000000000000000000000000000\n        /* \"#utility.yul\":1454:1455   */\n      0x00\n        /* \"#utility.yul\":1447:1535   */\n      mstore\n        /* \"#utility.yul\":1554:1558   */\n      0x31\n        /* \"#utility.yul\":1551:1552   */\n      0x04\n        /* \"#utility.yul\":1544:1559   */\n      mstore\n        /* \"#utility.yul\":1578:1582   */\n      0x24\n        /* \"#utility.yul\":1575:1576   */\n      0x00\n        /* \"#utility.yul\":1568:1583   */\n      revert\n        /* \"#utility.yul\":1718:1835   */\n    tag_32:\n        /* \"#utility.yul\":1827:1828   */\n      0x00\n        /* \"#utility.yul\":1824:1825   */\n      dup1\n        /* \"#utility.yul\":1817:1829   */\n      revert\n        /* \"#utility.yul\":1841:1991   */\n    tag_28:\n        /* \"#utility.yul\":1928:1966   */\n      tag_56\n        /* \"#utility.yul\":1960:1965   */\n      dup2\n        /* \"#utility.yul\":1928:1966   */\n      tag_46\n      jump\t// in\n    tag_56:\n        /* \"#utility.yul\":1921:1926   */\n      dup2\n        /* \"#utility.yul\":1918:1967   */\n      eq\n        /* \"#utility.yul\":1908:1985   */\n      tag_57\n      jumpi\n        /* \"#utility.yul\":1981:1982   */\n      0x00\n        /* \"#utility.yul\":1978:1979   */\n      dup1\n        /* \"#utility.yul\":1971:1983   */\n      revert\n        /* \"#utility.yul\":1908:1985   */\n    tag_57:\n        /* \"#utility.yul\":1841:1991   */\n      pop\n      jump\t// out\n\n    auxdata: 0xa26469706673582212204c47865383e5d41855da9cd92c1bcec9609ca3aeaf84a9d33b9c294c6b13a9b564736f6c63430008070033\n}\n",
				"bytecode": {
					"linkReferences": {},
					"object": "608060405234801561001057600080fd5b50610280806100206000396000f3fe608060405234801561001057600080fd5b50600436106100415760003560e01c80631f7b6d321461004657806389b09de714610064578063a4ece52c14610080575b600080fd5b61004e61008a565b60405161005b9190610196565b60405180910390f35b61007e6004803603810190610079919061015a565b610096565b005b6100886100fc565b005b60008080549050905090565b6000819080600181540180825580915050600190039060005260206000200160009091909190916101000a81548173ffffffffffffffffffffffffffffffffffffffff021916908373ffffffffffffffffffffffffffffffffffffffff16021790555050565b600080548061010e5761010d6101ff565b5b6001900381819060005260206000200160006101000a81549073ffffffffffffffffffffffffffffffffffffffff02191690559055565b60008135905061015481610233565b92915050565b6000602082840312156101705761016f61022e565b5b600061017e84828501610145565b91505092915050565b610190816101f5565b82525050565b60006020820190506101ab6000830184610187565b92915050565b60006101bc826101d5565b9050919050565b60006101ce826101b1565b9050919050565b600073ffffffffffffffffffffffffffffffffffffffff82169050919050565b6000819050919050565b7f4e487b7100000000000000000000000000000000000000000000000000000000600052603160045260246000fd5b600080fd5b61023c816101c3565b811461024757600080fd5b5056fea26469706673582212204c47865383e5d41855da9cd92c1bcec9609ca3aeaf84a9d33b9c294c6b13a9b564736f6c63430008070033",
					"opcodes": "PUSH1 0x80 PUSH1 0x40 MSTORE CALLVALUE DUP1 ISZERO PUSH2 0x10 JUMPI PUSH1 0x0 DUP1 REVERT JUMPDEST POP PUSH2 0x280 DUP1 PUSH2 0x20 PUSH1 0x0 CODECOPY PUSH1 0x0 RETURN INVALID PUSH1 0x80 PUSH1 0x40 MSTORE CALLVALUE DUP1 ISZERO PUSH2 0x10 JUMPI PUSH1 0x0 DUP1 REVERT JUMPDEST POP PUSH1 0x4 CALLDATASIZE LT PUSH2 0x41 JUMPI PUSH1 0x0 CALLDATALOAD PUSH1 0xE0 SHR DUP1 PUSH4 0x1F7B6D32 EQ PUSH2 0x46 JUMPI DUP1 PUSH4 0x89B09DE7 EQ PUSH2 0x64 JUMPI DUP1 PUSH4 0xA4ECE52C EQ PUSH2 0x80 JUMPI JUMPDEST PUSH1 0x0 DUP1 REVERT JUMPDEST PUSH2 0x4E PUSH2 0x8A JUMP JUMPDEST PUSH1 0x40 MLOAD PUSH2 0x5B SWAP2 SWAP1 PUSH2 0x196 JUMP JUMPDEST PUSH1 0x40 MLOAD DUP1 SWAP2 SUB SWAP1 RETURN JUMPDEST PUSH2 0x7E PUSH1 0x4 DUP1 CALLDATASIZE SUB DUP2 ADD SWAP1 PUSH2 0x79 SWAP2 SWAP1 PUSH2 0x15A JUMP JUMPDEST PUSH2 0x96 JUMP JUMPDEST STOP JUMPDEST PUSH2 0x88 PUSH2 0xFC JUMP JUMPDEST STOP JUMPDEST PUSH1 0x0 DUP1 DUP1 SLOAD SWAP1 POP SWAP1 POP SWAP1 JUMP JUMPDEST PUSH1 0x0 DUP2 SWAP1 DUP1 PUSH1 0x1 DUP2 SLOAD ADD DUP1 DUP3 SSTORE DUP1 SWAP2 POP POP PUSH1 0x1 SWAP1 SUB SWAP1 PUSH1 0x0 MSTORE PUSH1 0x20 PUSH1 0x0 KECCAK256 ADD PUSH1 0x0 SWAP1 SWAP2 SWAP1 SWAP2 SWAP1 SWAP2 PUSH2 0x100 EXP DUP2 SLOAD DUP2 PUSH20 0xFFFFFFFFFFFFFFFFFFFFFFFFFFFFFFFFFFFFFFFF MUL NOT AND SWAP1 DUP4 PUSH20 0xFFFFFFFFFFFFFFFFFFFFFFFFFFFFFFFFFFFFFFFF AND MUL OR SWAP1 SSTORE POP POP JUMP JUMPDEST PUSH1 0x0 DUP1 SLOAD DUP1 PUSH2 0x10E JUMPI PUSH2 0x10D PUSH2 0x1FF JUMP JUMPDEST JUMPDEST PUSH1 0x1 SWAP1 SUB DUP2 DUP2 SWAP1 PUSH1 0x0 MSTORE PUSH1 0x20 PUSH1 0x0 KECCAK256 ADD PUSH1 0x0 PUSH2 0x100 EXP DUP2 SLOAD SWAP1 PUSH20 0xFFFFFFFFFFFFFFFFFFFFFFFFFFFFFFFFFFFFFFFF MUL NOT AND SWAP1 SSTORE SWAP1 SSTORE JUMP JUMPDEST PUSH1 0x0 DUP2 CALLDATALOAD SWAP1 POP PUSH2 0x154 DUP2 PUSH2 0x233 JUMP JUMPDEST SWAP3 SWAP2 POP POP JUMP JUMPDEST PUSH1 0x0 PUSH1 0x20 DUP3 DUP5 SUB SLT ISZERO PUSH2 0x170 JUMPI PUSH2 0x16F PUSH2 0x22E JUMP JUMPDEST JUMPDEST PUSH1 0x0 PUSH2 0x17E DUP5 DUP3 DUP6 ADD PUSH2 0x145 JUMP JUMPDEST SWAP2 POP POP SWAP3 SWAP2 POP POP JUMP JUMPDEST PUSH2 0x190 DUP2 PUSH2 0x1F5 JUMP JUMPDEST DUP3 MSTORE POP POP JUMP JUMPDEST PUSH1 0x0 PUSH1 0x20 DUP3 ADD SWAP1 POP PUSH2 0x1AB PUSH1 0x0 DUP4 ADD DUP5 PUSH2 0x187 JUMP JUMPDEST SWAP3 SWAP2 POP POP JUMP JUMPDEST PUSH1 0x0 PUSH2 0x1BC DUP3 PUSH2 0x1D5 JUMP JUMPDEST SWAP1 POP SWAP2 SWAP1 POP JUMP JUMPDEST PUSH1 0x0 PUSH2 0x1CE DUP3 PUSH2 0x1B1 JUMP JUMPDEST SWAP1 POP SWAP2 SWAP1 POP JUMP JUMPDEST PUSH1 0x0 PUSH20 0xFFFFFFFFFFFFFFFFFFFFFFFFFFFFFFFFFFFFFFFF DUP3 AND SWAP1 POP SWAP2 SWAP1 POP JUMP JUMPDEST PUSH1 0x0 DUP2 SWAP1 POP SWAP2 SWAP1 POP JUMP JUMPDEST PUSH32 0x4E487B7100000000000000000000000000000000000000000000000000000000 PUSH1 0x0 MSTORE PUSH1 0x31 PUSH1 0x4 MSTORE PUSH1 0x24 PUSH1 0x0 REVERT JUMPDEST PUSH1 0x0 DUP1 REVERT JUMPDEST PUSH2 0x23C DUP2 PUSH2 0x1C3 JUMP JUMPDEST DUP2 EQ PUSH2 0x247 JUMPI PUSH1 0x0 DUP1 REVERT JUMPDEST POP JUMP INVALID LOG2 PUSH5 0x6970667358 0x22 SLT KECCAK256 0x4C SELFBALANCE DUP7 MSTORE8 DUP4 0xE5 0xD4 XOR SSTORE 0xDA SWAP13 0xD9 0x2C SHL 0xCE 0xC9 PUSH1 0x9C LOG3 0xAE 0xAF DUP5 0xA9 0xD3 EXTCODESIZE SWAP13 0x29 0x4C PUSH12 0x13A9B564736F6C6343000807 STOP CALLER "
				},
				"gasEstimates": {
					"creation": {
						"codeDepositCost": "128000",
						"executionCost": "171",
						"totalCost": "128171"
					},
					"external": {
						"length()": "2423",
						"pop()": "48700",
						"push(address)": "49077"
					}
				},
				"methodIdentifiers": {
					"length()": "1f7b6d32",
					"pop()": "a4ece52c",
					"push(address)": "89b09de7"
				}
			},
			"storageLayout": {
				"storage": [
					{
						"astId": 76,
						"contract": "contracts/Usuario.sol:MatrisUsuario",
						"label": "usuarios",
						"offset": 0,
						"slot": "0",
						"type": "t_array(t_contract(Usuario)23)dyn_storage"
					}
				],
				"types": {
					"t_array(t_contract(Usuario)23)dyn_storage": {
						"base": "t_contract(Usuario)23",
						"encoding": "dynamic_array",
						"label": "contract Usuario[]",
						"numberOfBytes": "32"
					},
					"t_contract(Usuario)23": {
						"encoding": "inplace",
						"label": "contract Usuario",
						"numberOfBytes": "20"
					}
				}
			},
			"userdoc": {
				"kind": "user",
				"methods": {},
				"version": 1
			}
		}
	}
}