{
	"contracts/Usuario.sol": {
		"Grupo": {
			"abi": [
				{
					"inputs": [
						{
							"internalType": "address",
							"name": "_identificador",
							"type": "address"
						},
						{
							"internalType": "string",
							"name": "_apodo",
							"type": "string"
						}
					],
					"stateMutability": "nonpayable",
					"type": "constructor"
				},
				{
					"inputs": [
						{
							"internalType": "contract Usuario",
							"name": "_usuario",
							"type": "address"
						}
					],
					"name": "addUsuario",
					"outputs": [
						{
							"internalType": "bool",
							"name": "",
							"type": "bool"
						}
					],
					"stateMutability": "nonpayable",
					"type": "function"
				}
			],
			"devdoc": {
				"kind": "dev",
				"methods": {},
				"title": "Usuario",
				"version": 1
			},
			"evm": {
				"assembly": "    /* \"contracts/Usuario.sol\":295:714  contract Grupo {... */\n  mstore(0x40, 0x80)\n    /* \"contracts/Usuario.sol\":401:577  constructor(address _identificador, string memory _apodo) {... */\n  callvalue\n  dup1\n  iszero\n  tag_1\n  jumpi\n  0x00\n  dup1\n  revert\ntag_1:\n  pop\n  mload(0x40)\n  sub(codesize, bytecodeSize)\n  dup1\n  bytecodeSize\n  dup4\n  codecopy\n  dup2\n  dup2\n  add\n  0x40\n  mstore\n  dup2\n  add\n  swap1\n  tag_2\n  swap2\n  swap1\n  tag_3\n  jump\t// in\ntag_2:\n    /* \"contracts/Usuario.sol\":485:499  _identificador */\n  dup2\n    /* \"contracts/Usuario.sol\":469:482  identificador */\n  0x00\n  dup1\n    /* \"contracts/Usuario.sol\":469:499  identificador = _identificador */\n  0x0100\n  exp\n  dup2\n  sload\n  dup2\n  0xffffffffffffffffffffffffffffffffffffffff\n  mul\n  not\n  and\n  swap1\n  dup4\n  0xffffffffffffffffffffffffffffffffffffffff\n  and\n  mul\n  or\n  swap1\n  sstore\n  pop\n    /* \"contracts/Usuario.sol\":517:523  _apodo */\n  dup1\n    /* \"contracts/Usuario.sol\":509:514  apodo */\n  0x01\n    /* \"contracts/Usuario.sol\":509:523  apodo = _apodo */\n  swap1\n  dup1\n  mload\n  swap1\n  0x20\n  add\n  swap1\n  tag_6\n  swap3\n  swap2\n  swap1\n  tag_7\n  jump\t// in\ntag_6:\n  pop\n    /* \"contracts/Usuario.sol\":550:569  new MatrisUsuario() */\n  mload(0x40)\n  tag_8\n  swap1\n  tag_9\n  jump\t// in\ntag_8:\n  mload(0x40)\n  dup1\n  swap2\n  sub\n  swap1\n  0x00\n  create\n  dup1\n  iszero\n  dup1\n  iszero\n  tag_10\n  jumpi\n  returndatasize\n  0x00\n  dup1\n  returndatacopy\n  revert(0x00, returndatasize)\ntag_10:\n  pop\n    /* \"contracts/Usuario.sol\":533:547  _matrisUsuario */\n  0x02\n  0x00\n    /* \"contracts/Usuario.sol\":533:569  _matrisUsuario = new MatrisUsuario() */\n  0x0100\n  exp\n  dup2\n  sload\n  dup2\n  0xffffffffffffffffffffffffffffffffffffffff\n  mul\n  not\n  and\n  swap1\n  dup4\n  0xffffffffffffffffffffffffffffffffffffffff\n  and\n  mul\n  or\n  swap1\n  sstore\n  pop\n    /* \"contracts/Usuario.sol\":401:577  constructor(address _identificador, string memory _apodo) {... */\n  pop\n  pop\n    /* \"contracts/Usuario.sol\":295:714  contract Grupo {... */\n  jump(tag_11)\ntag_7:\n  dup3\n  dup1\n  sload\n  tag_12\n  swap1\n  tag_13\n  jump\t// in\ntag_12:\n  swap1\n  0x00\n  mstore\n  keccak256(0x00, 0x20)\n  swap1\n  0x1f\n  add\n  0x20\n  swap1\n  div\n  dup2\n  add\n  swap3\n  dup3\n  tag_15\n  jumpi\n  0x00\n  dup6\n  sstore\n  jump(tag_14)\ntag_15:\n  dup3\n  0x1f\n  lt\n  tag_16\n  jumpi\n  dup1\n  mload\n  not(0xff)\n  and\n  dup4\n  dup1\n  add\n  or\n  dup6\n  sstore\n  jump(tag_14)\ntag_16:\n  dup3\n  dup1\n  add\n  0x01\n  add\n  dup6\n  sstore\n  dup3\n  iszero\n  tag_14\n  jumpi\n  swap2\n  dup3\n  add\ntag_17:\n  dup3\n  dup2\n  gt\n  iszero\n  tag_18\n  jumpi\n  dup3\n  mload\n  dup3\n  sstore\n  swap2\n  0x20\n  add\n  swap2\n  swap1\n  0x01\n  add\n  swap1\n  jump(tag_17)\ntag_18:\ntag_14:\n  pop\n  swap1\n  pop\n  tag_19\n  swap2\n  swap1\n  tag_20\n  jump\t// in\ntag_19:\n  pop\n  swap1\n  jump\t// out\ntag_9:\n  dataSize(sub_1)\n  dup1\n  dataOffset(sub_1)\n  dup4\n  codecopy\n  add\n  swap1\n  jump\t// out\ntag_20:\ntag_21:\n  dup1\n  dup3\n  gt\n  iszero\n  tag_22\n  jumpi\n  0x00\n  dup2\n  0x00\n  swap1\n  sstore\n  pop\n  0x01\n  add\n  jump(tag_21)\ntag_22:\n  pop\n  swap1\n  jump\t// out\n    /* \"#utility.yul\":7:428   */\ntag_24:\n    /* \"#utility.yul\":96:101   */\n  0x00\n    /* \"#utility.yul\":121:187   */\n  tag_26\n    /* \"#utility.yul\":137:186   */\n  tag_27\n    /* \"#utility.yul\":179:185   */\n  dup5\n    /* \"#utility.yul\":137:186   */\n  tag_28\n  jump\t// in\ntag_27:\n    /* \"#utility.yul\":121:187   */\n  tag_29\n  jump\t// in\ntag_26:\n    /* \"#utility.yul\":112:187   */\n  swap1\n  pop\n    /* \"#utility.yul\":210:216   */\n  dup3\n    /* \"#utility.yul\":203:208   */\n  dup2\n    /* \"#utility.yul\":196:217   */\n  mstore\n    /* \"#utility.yul\":248:252   */\n  0x20\n    /* \"#utility.yul\":241:246   */\n  dup2\n    /* \"#utility.yul\":237:253   */\n  add\n    /* \"#utility.yul\":286:289   */\n  dup5\n    /* \"#utility.yul\":277:283   */\n  dup5\n    /* \"#utility.yul\":272:275   */\n  dup5\n    /* \"#utility.yul\":268:284   */\n  add\n    /* \"#utility.yul\":265:290   */\n  gt\n    /* \"#utility.yul\":262:374   */\n  iszero\n  tag_30\n  jumpi\n    /* \"#utility.yul\":293:372   */\n  tag_31\n  tag_32\n  jump\t// in\ntag_31:\n    /* \"#utility.yul\":262:374   */\ntag_30:\n    /* \"#utility.yul\":383:422   */\n  tag_33\n    /* \"#utility.yul\":415:421   */\n  dup5\n    /* \"#utility.yul\":410:413   */\n  dup3\n    /* \"#utility.yul\":405:408   */\n  dup6\n    /* \"#utility.yul\":383:422   */\n  tag_34\n  jump\t// in\ntag_33:\n    /* \"#utility.yul\":102:428   */\n  pop\n    /* \"#utility.yul\":7:428   */\n  swap4\n  swap3\n  pop\n  pop\n  pop\n  jump\t// out\n    /* \"#utility.yul\":434:577   */\ntag_35:\n    /* \"#utility.yul\":491:496   */\n  0x00\n    /* \"#utility.yul\":522:528   */\n  dup2\n    /* \"#utility.yul\":516:529   */\n  mload\n    /* \"#utility.yul\":507:529   */\n  swap1\n  pop\n    /* \"#utility.yul\":538:571   */\n  tag_37\n    /* \"#utility.yul\":565:570   */\n  dup2\n    /* \"#utility.yul\":538:571   */\n  tag_38\n  jump\t// in\ntag_37:\n    /* \"#utility.yul\":434:577   */\n  swap3\n  swap2\n  pop\n  pop\n  jump\t// out\n    /* \"#utility.yul\":597:952   */\ntag_39:\n    /* \"#utility.yul\":664:669   */\n  0x00\n    /* \"#utility.yul\":713:716   */\n  dup3\n    /* \"#utility.yul\":706:710   */\n  0x1f\n    /* \"#utility.yul\":698:704   */\n  dup4\n    /* \"#utility.yul\":694:711   */\n  add\n    /* \"#utility.yul\":690:717   */\n  slt\n    /* \"#utility.yul\":680:802   */\n  tag_41\n  jumpi\n    /* \"#utility.yul\":721:800   */\n  tag_42\n  tag_43\n  jump\t// in\ntag_42:\n    /* \"#utility.yul\":680:802   */\ntag_41:\n    /* \"#utility.yul\":831:837   */\n  dup2\n    /* \"#utility.yul\":825:838   */\n  mload\n    /* \"#utility.yul\":856:946   */\n  tag_44\n    /* \"#utility.yul\":942:945   */\n  dup5\n    /* \"#utility.yul\":934:940   */\n  dup3\n    /* \"#utility.yul\":927:931   */\n  0x20\n    /* \"#utility.yul\":919:925   */\n  dup7\n    /* \"#utility.yul\":915:932   */\n  add\n    /* \"#utility.yul\":856:946   */\n  tag_24\n  jump\t// in\ntag_44:\n    /* \"#utility.yul\":847:946   */\n  swap2\n  pop\n    /* \"#utility.yul\":670:952   */\n  pop\n    /* \"#utility.yul\":597:952   */\n  swap3\n  swap2\n  pop\n  pop\n  jump\t// out\n    /* \"#utility.yul\":958:1638   */\ntag_3:\n    /* \"#utility.yul\":1047:1053   */\n  0x00\n    /* \"#utility.yul\":1055:1061   */\n  dup1\n    /* \"#utility.yul\":1104:1106   */\n  0x40\n    /* \"#utility.yul\":1092:1101   */\n  dup4\n    /* \"#utility.yul\":1083:1090   */\n  dup6\n    /* \"#utility.yul\":1079:1102   */\n  sub\n    /* \"#utility.yul\":1075:1107   */\n  slt\n    /* \"#utility.yul\":1072:1191   */\n  iszero\n  tag_46\n  jumpi\n    /* \"#utility.yul\":1110:1189   */\n  tag_47\n  tag_48\n  jump\t// in\ntag_47:\n    /* \"#utility.yul\":1072:1191   */\ntag_46:\n    /* \"#utility.yul\":1230:1231   */\n  0x00\n    /* \"#utility.yul\":1255:1319   */\n  tag_49\n    /* \"#utility.yul\":1311:1318   */\n  dup6\n    /* \"#utility.yul\":1302:1308   */\n  dup3\n    /* \"#utility.yul\":1291:1300   */\n  dup7\n    /* \"#utility.yul\":1287:1309   */\n  add\n    /* \"#utility.yul\":1255:1319   */\n  tag_35\n  jump\t// in\ntag_49:\n    /* \"#utility.yul\":1245:1319   */\n  swap3\n  pop\n    /* \"#utility.yul\":1201:1329   */\n  pop\n    /* \"#utility.yul\":1389:1391   */\n  0x20\n    /* \"#utility.yul\":1378:1387   */\n  dup4\n    /* \"#utility.yul\":1374:1392   */\n  add\n    /* \"#utility.yul\":1368:1393   */\n  mload\n    /* \"#utility.yul\":1420:1438   */\n  0xffffffffffffffff\n    /* \"#utility.yul\":1412:1418   */\n  dup2\n    /* \"#utility.yul\":1409:1439   */\n  gt\n    /* \"#utility.yul\":1406:1523   */\n  iszero\n  tag_50\n  jumpi\n    /* \"#utility.yul\":1442:1521   */\n  tag_51\n  tag_52\n  jump\t// in\ntag_51:\n    /* \"#utility.yul\":1406:1523   */\ntag_50:\n    /* \"#utility.yul\":1547:1621   */\n  tag_53\n    /* \"#utility.yul\":1613:1620   */\n  dup6\n    /* \"#utility.yul\":1604:1610   */\n  dup3\n    /* \"#utility.yul\":1593:1602   */\n  dup7\n    /* \"#utility.yul\":1589:1611   */\n  add\n    /* \"#utility.yul\":1547:1621   */\n  tag_39\n  jump\t// in\ntag_53:\n    /* \"#utility.yul\":1537:1621   */\n  swap2\n  pop\n    /* \"#utility.yul\":1339:1631   */\n  pop\n    /* \"#utility.yul\":958:1638   */\n  swap3\n  pop\n  swap3\n  swap1\n  pop\n  jump\t// out\n    /* \"#utility.yul\":1644:1773   */\ntag_29:\n    /* \"#utility.yul\":1678:1684   */\n  0x00\n    /* \"#utility.yul\":1705:1725   */\n  tag_55\n  tag_56\n  jump\t// in\ntag_55:\n    /* \"#utility.yul\":1695:1725   */\n  swap1\n  pop\n    /* \"#utility.yul\":1734:1767   */\n  tag_57\n    /* \"#utility.yul\":1762:1766   */\n  dup3\n    /* \"#utility.yul\":1754:1760   */\n  dup3\n    /* \"#utility.yul\":1734:1767   */\n  tag_58\n  jump\t// in\ntag_57:\n    /* \"#utility.yul\":1644:1773   */\n  swap2\n  swap1\n  pop\n  jump\t// out\n    /* \"#utility.yul\":1779:1854   */\ntag_56:\n    /* \"#utility.yul\":1812:1818   */\n  0x00\n    /* \"#utility.yul\":1845:1847   */\n  0x40\n    /* \"#utility.yul\":1839:1848   */\n  mload\n    /* \"#utility.yul\":1829:1848   */\n  swap1\n  pop\n    /* \"#utility.yul\":1779:1854   */\n  swap1\n  jump\t// out\n    /* \"#utility.yul\":1860:2168   */\ntag_28:\n    /* \"#utility.yul\":1922:1926   */\n  0x00\n    /* \"#utility.yul\":2012:2030   */\n  0xffffffffffffffff\n    /* \"#utility.yul\":2004:2010   */\n  dup3\n    /* \"#utility.yul\":2001:2031   */\n  gt\n    /* \"#utility.yul\":1998:2054   */\n  iszero\n  tag_61\n  jumpi\n    /* \"#utility.yul\":2034:2052   */\n  tag_62\n  tag_63\n  jump\t// in\ntag_62:\n    /* \"#utility.yul\":1998:2054   */\ntag_61:\n    /* \"#utility.yul\":2072:2101   */\n  tag_64\n    /* \"#utility.yul\":2094:2100   */\n  dup3\n    /* \"#utility.yul\":2072:2101   */\n  tag_65\n  jump\t// in\ntag_64:\n    /* \"#utility.yul\":2064:2101   */\n  swap1\n  pop\n    /* \"#utility.yul\":2156:2160   */\n  0x20\n    /* \"#utility.yul\":2150:2154   */\n  dup2\n    /* \"#utility.yul\":2146:2161   */\n  add\n    /* \"#utility.yul\":2138:2161   */\n  swap1\n  pop\n    /* \"#utility.yul\":1860:2168   */\n  swap2\n  swap1\n  pop\n  jump\t// out\n    /* \"#utility.yul\":2174:2270   */\ntag_66:\n    /* \"#utility.yul\":2211:2218   */\n  0x00\n    /* \"#utility.yul\":2240:2264   */\n  tag_68\n    /* \"#utility.yul\":2258:2263   */\n  dup3\n    /* \"#utility.yul\":2240:2264   */\n  tag_69\n  jump\t// in\ntag_68:\n    /* \"#utility.yul\":2229:2264   */\n  swap1\n  pop\n    /* \"#utility.yul\":2174:2270   */\n  swap2\n  swap1\n  pop\n  jump\t// out\n    /* \"#utility.yul\":2276:2402   */\ntag_69:\n    /* \"#utility.yul\":2313:2320   */\n  0x00\n    /* \"#utility.yul\":2353:2395   */\n  0xffffffffffffffffffffffffffffffffffffffff\n    /* \"#utility.yul\":2346:2351   */\n  dup3\n    /* \"#utility.yul\":2342:2396   */\n  and\n    /* \"#utility.yul\":2331:2396   */\n  swap1\n  pop\n    /* \"#utility.yul\":2276:2402   */\n  swap2\n  swap1\n  pop\n  jump\t// out\n    /* \"#utility.yul\":2408:2715   */\ntag_34:\n    /* \"#utility.yul\":2476:2477   */\n  0x00\n    /* \"#utility.yul\":2486:2599   */\ntag_72:\n    /* \"#utility.yul\":2500:2506   */\n  dup4\n    /* \"#utility.yul\":2497:2498   */\n  dup2\n    /* \"#utility.yul\":2494:2507   */\n  lt\n    /* \"#utility.yul\":2486:2599   */\n  iszero\n  tag_74\n  jumpi\n    /* \"#utility.yul\":2585:2586   */\n  dup1\n    /* \"#utility.yul\":2580:2583   */\n  dup3\n    /* \"#utility.yul\":2576:2587   */\n  add\n    /* \"#utility.yul\":2570:2588   */\n  mload\n    /* \"#utility.yul\":2566:2567   */\n  dup2\n    /* \"#utility.yul\":2561:2564   */\n  dup5\n    /* \"#utility.yul\":2557:2568   */\n  add\n    /* \"#utility.yul\":2550:2589   */\n  mstore\n    /* \"#utility.yul\":2522:2524   */\n  0x20\n    /* \"#utility.yul\":2519:2520   */\n  dup2\n    /* \"#utility.yul\":2515:2525   */\n  add\n    /* \"#utility.yul\":2510:2525   */\n  swap1\n  pop\n    /* \"#utility.yul\":2486:2599   */\n  jump(tag_72)\ntag_74:\n    /* \"#utility.yul\":2617:2623   */\n  dup4\n    /* \"#utility.yul\":2614:2615   */\n  dup2\n    /* \"#utility.yul\":2611:2624   */\n  gt\n    /* \"#utility.yul\":2608:2709   */\n  iszero\n  tag_75\n  jumpi\n    /* \"#utility.yul\":2697:2698   */\n  0x00\n    /* \"#utility.yul\":2688:2694   */\n  dup5\n    /* \"#utility.yul\":2683:2686   */\n  dup5\n    /* \"#utility.yul\":2679:2695   */\n  add\n    /* \"#utility.yul\":2672:2699   */\n  mstore\n    /* \"#utility.yul\":2608:2709   */\ntag_75:\n    /* \"#utility.yul\":2457:2715   */\n  pop\n    /* \"#utility.yul\":2408:2715   */\n  pop\n  pop\n  pop\n  jump\t// out\n    /* \"#utility.yul\":2721:3041   */\ntag_13:\n    /* \"#utility.yul\":2765:2771   */\n  0x00\n    /* \"#utility.yul\":2802:2803   */\n  0x02\n    /* \"#utility.yul\":2796:2800   */\n  dup3\n    /* \"#utility.yul\":2792:2804   */\n  div\n    /* \"#utility.yul\":2782:2804   */\n  swap1\n  pop\n    /* \"#utility.yul\":2849:2850   */\n  0x01\n    /* \"#utility.yul\":2843:2847   */\n  dup3\n    /* \"#utility.yul\":2839:2851   */\n  and\n    /* \"#utility.yul\":2870:2888   */\n  dup1\n    /* \"#utility.yul\":2860:2941   */\n  tag_77\n  jumpi\n    /* \"#utility.yul\":2926:2930   */\n  0x7f\n    /* \"#utility.yul\":2918:2924   */\n  dup3\n    /* \"#utility.yul\":2914:2931   */\n  and\n    /* \"#utility.yul\":2904:2931   */\n  swap2\n  pop\n    /* \"#utility.yul\":2860:2941   */\ntag_77:\n    /* \"#utility.yul\":2988:2990   */\n  0x20\n    /* \"#utility.yul\":2980:2986   */\n  dup3\n    /* \"#utility.yul\":2977:2991   */\n  lt\n    /* \"#utility.yul\":2957:2975   */\n  dup2\n    /* \"#utility.yul\":2954:2992   */\n  eq\n    /* \"#utility.yul\":2951:3035   */\n  iszero\n  tag_78\n  jumpi\n    /* \"#utility.yul\":3007:3025   */\n  tag_79\n  tag_80\n  jump\t// in\ntag_79:\n    /* \"#utility.yul\":2951:3035   */\ntag_78:\n    /* \"#utility.yul\":2772:3041   */\n  pop\n    /* \"#utility.yul\":2721:3041   */\n  swap2\n  swap1\n  pop\n  jump\t// out\n    /* \"#utility.yul\":3047:3328   */\ntag_58:\n    /* \"#utility.yul\":3130:3157   */\n  tag_82\n    /* \"#utility.yul\":3152:3156   */\n  dup3\n    /* \"#utility.yul\":3130:3157   */\n  tag_65\n  jump\t// in\ntag_82:\n    /* \"#utility.yul\":3122:3128   */\n  dup2\n    /* \"#utility.yul\":3118:3158   */\n  add\n    /* \"#utility.yul\":3260:3266   */\n  dup2\n    /* \"#utility.yul\":3248:3258   */\n  dup2\n    /* \"#utility.yul\":3245:3267   */\n  lt\n    /* \"#utility.yul\":3224:3242   */\n  0xffffffffffffffff\n    /* \"#utility.yul\":3212:3222   */\n  dup3\n    /* \"#utility.yul\":3209:3243   */\n  gt\n    /* \"#utility.yul\":3206:3268   */\n  or\n    /* \"#utility.yul\":3203:3291   */\n  iszero\n  tag_83\n  jumpi\n    /* \"#utility.yul\":3271:3289   */\n  tag_84\n  tag_63\n  jump\t// in\ntag_84:\n    /* \"#utility.yul\":3203:3291   */\ntag_83:\n    /* \"#utility.yul\":3311:3321   */\n  dup1\n    /* \"#utility.yul\":3307:3309   */\n  0x40\n    /* \"#utility.yul\":3300:3322   */\n  mstore\n    /* \"#utility.yul\":3090:3328   */\n  pop\n    /* \"#utility.yul\":3047:3328   */\n  pop\n  pop\n  jump\t// out\n    /* \"#utility.yul\":3334:3514   */\ntag_80:\n    /* \"#utility.yul\":3382:3459   */\n  0x4e487b7100000000000000000000000000000000000000000000000000000000\n    /* \"#utility.yul\":3379:3380   */\n  0x00\n    /* \"#utility.yul\":3372:3460   */\n  mstore\n    /* \"#utility.yul\":3479:3483   */\n  0x22\n    /* \"#utility.yul\":3476:3477   */\n  0x04\n    /* \"#utility.yul\":3469:3484   */\n  mstore\n    /* \"#utility.yul\":3503:3507   */\n  0x24\n    /* \"#utility.yul\":3500:3501   */\n  0x00\n    /* \"#utility.yul\":3493:3508   */\n  revert\n    /* \"#utility.yul\":3520:3700   */\ntag_63:\n    /* \"#utility.yul\":3568:3645   */\n  0x4e487b7100000000000000000000000000000000000000000000000000000000\n    /* \"#utility.yul\":3565:3566   */\n  0x00\n    /* \"#utility.yul\":3558:3646   */\n  mstore\n    /* \"#utility.yul\":3665:3669   */\n  0x41\n    /* \"#utility.yul\":3662:3663   */\n  0x04\n    /* \"#utility.yul\":3655:3670   */\n  mstore\n    /* \"#utility.yul\":3689:3693   */\n  0x24\n    /* \"#utility.yul\":3686:3687   */\n  0x00\n    /* \"#utility.yul\":3679:3694   */\n  revert\n    /* \"#utility.yul\":3706:3823   */\ntag_43:\n    /* \"#utility.yul\":3815:3816   */\n  0x00\n    /* \"#utility.yul\":3812:3813   */\n  dup1\n    /* \"#utility.yul\":3805:3817   */\n  revert\n    /* \"#utility.yul\":3829:3946   */\ntag_32:\n    /* \"#utility.yul\":3938:3939   */\n  0x00\n    /* \"#utility.yul\":3935:3936   */\n  dup1\n    /* \"#utility.yul\":3928:3940   */\n  revert\n    /* \"#utility.yul\":3952:4069   */\ntag_52:\n    /* \"#utility.yul\":4061:4062   */\n  0x00\n    /* \"#utility.yul\":4058:4059   */\n  dup1\n    /* \"#utility.yul\":4051:4063   */\n  revert\n    /* \"#utility.yul\":4075:4192   */\ntag_48:\n    /* \"#utility.yul\":4184:4185   */\n  0x00\n    /* \"#utility.yul\":4181:4182   */\n  dup1\n    /* \"#utility.yul\":4174:4186   */\n  revert\n    /* \"#utility.yul\":4198:4300   */\ntag_65:\n    /* \"#utility.yul\":4239:4245   */\n  0x00\n    /* \"#utility.yul\":4290:4292   */\n  0x1f\n    /* \"#utility.yul\":4286:4293   */\n  not\n    /* \"#utility.yul\":4281:4283   */\n  0x1f\n    /* \"#utility.yul\":4274:4279   */\n  dup4\n    /* \"#utility.yul\":4270:4284   */\n  add\n    /* \"#utility.yul\":4266:4294   */\n  and\n    /* \"#utility.yul\":4256:4294   */\n  swap1\n  pop\n    /* \"#utility.yul\":4198:4300   */\n  swap2\n  swap1\n  pop\n  jump\t// out\n    /* \"#utility.yul\":4306:4428   */\ntag_38:\n    /* \"#utility.yul\":4379:4403   */\n  tag_93\n    /* \"#utility.yul\":4397:4402   */\n  dup2\n    /* \"#utility.yul\":4379:4403   */\n  tag_66\n  jump\t// in\ntag_93:\n    /* \"#utility.yul\":4372:4377   */\n  dup2\n    /* \"#utility.yul\":4369:4404   */\n  eq\n    /* \"#utility.yul\":4359:4422   */\n  tag_94\n  jumpi\n    /* \"#utility.yul\":4418:4419   */\n  0x00\n    /* \"#utility.yul\":4415:4416   */\n  dup1\n    /* \"#utility.yul\":4408:4420   */\n  revert\n    /* \"#utility.yul\":4359:4422   */\ntag_94:\n    /* \"#utility.yul\":4306:4428   */\n  pop\n  jump\t// out\n    /* \"contracts/Usuario.sol\":295:714  contract Grupo {... */\ntag_11:\n  dataSize(sub_0)\n  dup1\n  dataOffset(sub_0)\n  0x00\n  codecopy\n  0x00\n  return\nstop\n\nsub_0: assembly {\n        /* \"contracts/Usuario.sol\":295:714  contract Grupo {... */\n      mstore(0x40, 0x80)\n      callvalue\n      dup1\n      iszero\n      tag_1\n      jumpi\n      0x00\n      dup1\n      revert\n    tag_1:\n      pop\n      jumpi(tag_2, lt(calldatasize, 0x04))\n      shr(0xe0, calldataload(0x00))\n      dup1\n      0x5ad06080\n      eq\n      tag_3\n      jumpi\n    tag_2:\n      0x00\n      dup1\n      revert\n        /* \"contracts/Usuario.sol\":583:711  function addUsuario( Usuario _usuario ) public returns(bool) {... */\n    tag_3:\n      tag_4\n      0x04\n      dup1\n      calldatasize\n      sub\n      dup2\n      add\n      swap1\n      tag_5\n      swap2\n      swap1\n      tag_6\n      jump\t// in\n    tag_5:\n      tag_7\n      jump\t// in\n    tag_4:\n      mload(0x40)\n      tag_8\n      swap2\n      swap1\n      tag_9\n      jump\t// in\n    tag_8:\n      mload(0x40)\n      dup1\n      swap2\n      sub\n      swap1\n      return\n    tag_7:\n        /* \"contracts/Usuario.sol\":638:642  bool */\n      0x00\n        /* \"contracts/Usuario.sol\":654:668  _matrisUsuario */\n      0x02\n      0x00\n      swap1\n      sload\n      swap1\n      0x0100\n      exp\n      swap1\n      div\n      0xffffffffffffffffffffffffffffffffffffffff\n      and\n        /* \"contracts/Usuario.sol\":654:673  _matrisUsuario.push */\n      0xffffffffffffffffffffffffffffffffffffffff\n      and\n      0x89b09de7\n        /* \"contracts/Usuario.sol\":674:682  _usuario */\n      dup4\n        /* \"contracts/Usuario.sol\":654:683  _matrisUsuario.push(_usuario) */\n      mload(0x40)\n      dup3\n      0xffffffff\n      and\n      0xe0\n      shl\n      dup2\n      mstore\n      0x04\n      add\n      tag_11\n      swap2\n      swap1\n      tag_12\n      jump\t// in\n    tag_11:\n      0x00\n      mload(0x40)\n      dup1\n      dup4\n      sub\n      dup2\n      0x00\n      dup8\n      dup1\n      extcodesize\n      iszero\n      dup1\n      iszero\n      tag_13\n      jumpi\n      0x00\n      dup1\n      revert\n    tag_13:\n      pop\n      gas\n      call\n      iszero\n      dup1\n      iszero\n      tag_15\n      jumpi\n      returndatasize\n      0x00\n      dup1\n      returndatacopy\n      revert(0x00, returndatasize)\n    tag_15:\n      pop\n      pop\n      pop\n      pop\n        /* \"contracts/Usuario.sol\":700:704  true */\n      0x01\n        /* \"contracts/Usuario.sol\":693:704  return true */\n      swap1\n      pop\n        /* \"contracts/Usuario.sol\":583:711  function addUsuario( Usuario _usuario ) public returns(bool) {... */\n      swap2\n      swap1\n      pop\n      jump\t// out\n        /* \"#utility.yul\":7:174   */\n    tag_17:\n        /* \"#utility.yul\":67:72   */\n      0x00\n        /* \"#utility.yul\":105:111   */\n      dup2\n        /* \"#utility.yul\":92:112   */\n      calldataload\n        /* \"#utility.yul\":83:112   */\n      swap1\n      pop\n        /* \"#utility.yul\":121:168   */\n      tag_19\n        /* \"#utility.yul\":162:167   */\n      dup2\n        /* \"#utility.yul\":121:168   */\n      tag_20\n      jump\t// in\n    tag_19:\n        /* \"#utility.yul\":7:174   */\n      swap3\n      swap2\n      pop\n      pop\n      jump\t// out\n        /* \"#utility.yul\":180:537   */\n    tag_6:\n        /* \"#utility.yul\":253:259   */\n      0x00\n        /* \"#utility.yul\":302:304   */\n      0x20\n        /* \"#utility.yul\":290:299   */\n      dup3\n        /* \"#utility.yul\":281:288   */\n      dup5\n        /* \"#utility.yul\":277:300   */\n      sub\n        /* \"#utility.yul\":273:305   */\n      slt\n        /* \"#utility.yul\":270:389   */\n      iszero\n      tag_22\n      jumpi\n        /* \"#utility.yul\":308:387   */\n      tag_23\n      tag_24\n      jump\t// in\n    tag_23:\n        /* \"#utility.yul\":270:389   */\n    tag_22:\n        /* \"#utility.yul\":428:429   */\n      0x00\n        /* \"#utility.yul\":453:520   */\n      tag_25\n        /* \"#utility.yul\":512:519   */\n      dup5\n        /* \"#utility.yul\":503:509   */\n      dup3\n        /* \"#utility.yul\":492:501   */\n      dup6\n        /* \"#utility.yul\":488:510   */\n      add\n        /* \"#utility.yul\":453:520   */\n      tag_17\n      jump\t// in\n    tag_25:\n        /* \"#utility.yul\":443:520   */\n      swap2\n      pop\n        /* \"#utility.yul\":399:530   */\n      pop\n        /* \"#utility.yul\":180:537   */\n      swap3\n      swap2\n      pop\n      pop\n      jump\t// out\n        /* \"#utility.yul\":543:652   */\n    tag_26:\n        /* \"#utility.yul\":624:645   */\n      tag_28\n        /* \"#utility.yul\":639:644   */\n      dup2\n        /* \"#utility.yul\":624:645   */\n      tag_29\n      jump\t// in\n    tag_28:\n        /* \"#utility.yul\":619:622   */\n      dup3\n        /* \"#utility.yul\":612:646   */\n      mstore\n        /* \"#utility.yul\":543:652   */\n      pop\n      pop\n      jump\t// out\n        /* \"#utility.yul\":658:817   */\n    tag_30:\n        /* \"#utility.yul\":759:810   */\n      tag_32\n        /* \"#utility.yul\":804:809   */\n      dup2\n        /* \"#utility.yul\":759:810   */\n      tag_33\n      jump\t// in\n    tag_32:\n        /* \"#utility.yul\":754:757   */\n      dup3\n        /* \"#utility.yul\":747:811   */\n      mstore\n        /* \"#utility.yul\":658:817   */\n      pop\n      pop\n      jump\t// out\n        /* \"#utility.yul\":823:1033   */\n    tag_9:\n        /* \"#utility.yul\":910:914   */\n      0x00\n        /* \"#utility.yul\":948:950   */\n      0x20\n        /* \"#utility.yul\":937:946   */\n      dup3\n        /* \"#utility.yul\":933:951   */\n      add\n        /* \"#utility.yul\":925:951   */\n      swap1\n      pop\n        /* \"#utility.yul\":961:1026   */\n      tag_35\n        /* \"#utility.yul\":1023:1024   */\n      0x00\n        /* \"#utility.yul\":1012:1021   */\n      dup4\n        /* \"#utility.yul\":1008:1025   */\n      add\n        /* \"#utility.yul\":999:1005   */\n      dup5\n        /* \"#utility.yul\":961:1026   */\n      tag_26\n      jump\t// in\n    tag_35:\n        /* \"#utility.yul\":823:1033   */\n      swap3\n      swap2\n      pop\n      pop\n      jump\t// out\n        /* \"#utility.yul\":1039:1289   */\n    tag_12:\n        /* \"#utility.yul\":1146:1150   */\n      0x00\n        /* \"#utility.yul\":1184:1186   */\n      0x20\n        /* \"#utility.yul\":1173:1182   */\n      dup3\n        /* \"#utility.yul\":1169:1187   */\n      add\n        /* \"#utility.yul\":1161:1187   */\n      swap1\n      pop\n        /* \"#utility.yul\":1197:1282   */\n      tag_37\n        /* \"#utility.yul\":1279:1280   */\n      0x00\n        /* \"#utility.yul\":1268:1277   */\n      dup4\n        /* \"#utility.yul\":1264:1281   */\n      add\n        /* \"#utility.yul\":1255:1261   */\n      dup5\n        /* \"#utility.yul\":1197:1282   */\n      tag_30\n      jump\t// in\n    tag_37:\n        /* \"#utility.yul\":1039:1289   */\n      swap3\n      swap2\n      pop\n      pop\n      jump\t// out\n        /* \"#utility.yul\":1376:1472   */\n    tag_40:\n        /* \"#utility.yul\":1413:1420   */\n      0x00\n        /* \"#utility.yul\":1442:1466   */\n      tag_42\n        /* \"#utility.yul\":1460:1465   */\n      dup3\n        /* \"#utility.yul\":1442:1466   */\n      tag_43\n      jump\t// in\n    tag_42:\n        /* \"#utility.yul\":1431:1466   */\n      swap1\n      pop\n        /* \"#utility.yul\":1376:1472   */\n      swap2\n      swap1\n      pop\n      jump\t// out\n        /* \"#utility.yul\":1478:1568   */\n    tag_29:\n        /* \"#utility.yul\":1512:1519   */\n      0x00\n        /* \"#utility.yul\":1555:1560   */\n      dup2\n        /* \"#utility.yul\":1548:1561   */\n      iszero\n        /* \"#utility.yul\":1541:1562   */\n      iszero\n        /* \"#utility.yul\":1530:1562   */\n      swap1\n      pop\n        /* \"#utility.yul\":1478:1568   */\n      swap2\n      swap1\n      pop\n      jump\t// out\n        /* \"#utility.yul\":1574:1684   */\n    tag_45:\n        /* \"#utility.yul\":1625:1632   */\n      0x00\n        /* \"#utility.yul\":1654:1678   */\n      tag_47\n        /* \"#utility.yul\":1672:1677   */\n      dup3\n        /* \"#utility.yul\":1654:1678   */\n      tag_40\n      jump\t// in\n    tag_47:\n        /* \"#utility.yul\":1643:1678   */\n      swap1\n      pop\n        /* \"#utility.yul\":1574:1684   */\n      swap2\n      swap1\n      pop\n      jump\t// out\n        /* \"#utility.yul\":1690:1816   */\n    tag_43:\n        /* \"#utility.yul\":1727:1734   */\n      0x00\n        /* \"#utility.yul\":1767:1809   */\n      0xffffffffffffffffffffffffffffffffffffffff\n        /* \"#utility.yul\":1760:1765   */\n      dup3\n        /* \"#utility.yul\":1756:1810   */\n      and\n        /* \"#utility.yul\":1745:1810   */\n      swap1\n      pop\n        /* \"#utility.yul\":1690:1816   */\n      swap2\n      swap1\n      pop\n      jump\t// out\n        /* \"#utility.yul\":1822:1962   */\n    tag_33:\n        /* \"#utility.yul\":1886:1895   */\n      0x00\n        /* \"#utility.yul\":1919:1956   */\n      tag_50\n        /* \"#utility.yul\":1950:1955   */\n      dup3\n        /* \"#utility.yul\":1919:1956   */\n      tag_51\n      jump\t// in\n    tag_50:\n        /* \"#utility.yul\":1906:1956   */\n      swap1\n      pop\n        /* \"#utility.yul\":1822:1962   */\n      swap2\n      swap1\n      pop\n      jump\t// out\n        /* \"#utility.yul\":1968:2094   */\n    tag_51:\n        /* \"#utility.yul\":2018:2027   */\n      0x00\n        /* \"#utility.yul\":2051:2088   */\n      tag_53\n        /* \"#utility.yul\":2082:2087   */\n      dup3\n        /* \"#utility.yul\":2051:2088   */\n      tag_54\n      jump\t// in\n    tag_53:\n        /* \"#utility.yul\":2038:2088   */\n      swap1\n      pop\n        /* \"#utility.yul\":1968:2094   */\n      swap2\n      swap1\n      pop\n      jump\t// out\n        /* \"#utility.yul\":2100:2213   */\n    tag_54:\n        /* \"#utility.yul\":2150:2159   */\n      0x00\n        /* \"#utility.yul\":2183:2207   */\n      tag_56\n        /* \"#utility.yul\":2201:2206   */\n      dup3\n        /* \"#utility.yul\":2183:2207   */\n      tag_43\n      jump\t// in\n    tag_56:\n        /* \"#utility.yul\":2170:2207   */\n      swap1\n      pop\n        /* \"#utility.yul\":2100:2213   */\n      swap2\n      swap1\n      pop\n      jump\t// out\n        /* \"#utility.yul\":2342:2459   */\n    tag_24:\n        /* \"#utility.yul\":2451:2452   */\n      0x00\n        /* \"#utility.yul\":2448:2449   */\n      dup1\n        /* \"#utility.yul\":2441:2453   */\n      revert\n        /* \"#utility.yul\":2465:2615   */\n    tag_20:\n        /* \"#utility.yul\":2552:2590   */\n      tag_61\n        /* \"#utility.yul\":2584:2589   */\n      dup2\n        /* \"#utility.yul\":2552:2590   */\n      tag_45\n      jump\t// in\n    tag_61:\n        /* \"#utility.yul\":2545:2550   */\n      dup2\n        /* \"#utility.yul\":2542:2591   */\n      eq\n        /* \"#utility.yul\":2532:2609   */\n      tag_62\n      jumpi\n        /* \"#utility.yul\":2605:2606   */\n      0x00\n        /* \"#utility.yul\":2602:2603   */\n      dup1\n        /* \"#utility.yul\":2595:2607   */\n      revert\n        /* \"#utility.yul\":2532:2609   */\n    tag_62:\n        /* \"#utility.yul\":2465:2615   */\n      pop\n      jump\t// out\n\n    auxdata: 0xa26469706673582212204b7efdf325c025dfa845a6730f851958d4b4a743bb3fd20ca508cb04204a94e164736f6c63430008070033\n}\n\nsub_1: assembly {\n        /* \"contracts/Usuario.sol\":716:1037  contract MatrisUsuario{... */\n      mstore(0x40, 0x80)\n        /* \"contracts/Usuario.sol\":774:797  constructor() public {} */\n      callvalue\n      dup1\n      iszero\n      tag_1\n      jumpi\n      0x00\n      dup1\n      revert\n    tag_1:\n      pop\n        /* \"contracts/Usuario.sol\":716:1037  contract MatrisUsuario{... */\n      dataSize(sub_0)\n      dup1\n      dataOffset(sub_0)\n      0x00\n      codecopy\n      0x00\n      return\n    stop\n\n    sub_0: assembly {\n            /* \"contracts/Usuario.sol\":716:1037  contract MatrisUsuario{... */\n          mstore(0x40, 0x80)\n          callvalue\n          dup1\n          iszero\n          tag_1\n          jumpi\n          0x00\n          dup1\n          revert\n        tag_1:\n          pop\n          jumpi(tag_2, lt(calldatasize, 0x04))\n          shr(0xe0, calldataload(0x00))\n          dup1\n          0x1f7b6d32\n          eq\n          tag_3\n          jumpi\n          dup1\n          0x89b09de7\n          eq\n          tag_4\n          jumpi\n          dup1\n          0xa4ece52c\n          eq\n          tag_5\n          jumpi\n        tag_2:\n          0x00\n          dup1\n          revert\n            /* \"contracts/Usuario.sol\":950:1034  function length() public view returns (uint) {... */\n        tag_3:\n          tag_6\n          tag_7\n          jump\t// in\n        tag_6:\n          mload(0x40)\n          tag_8\n          swap2\n          swap1\n          tag_9\n          jump\t// in\n        tag_8:\n          mload(0x40)\n          dup1\n          swap2\n          sub\n          swap1\n          return\n            /* \"contracts/Usuario.sol\":803:884  function push( Usuario _usuario ) public {... */\n        tag_4:\n          tag_10\n          0x04\n          dup1\n          calldatasize\n          sub\n          dup2\n          add\n          swap1\n          tag_11\n          swap2\n          swap1\n          tag_12\n          jump\t// in\n        tag_11:\n          tag_13\n          jump\t// in\n        tag_10:\n          stop\n            /* \"contracts/Usuario.sol\":890:944  function pop( ) public {... */\n        tag_5:\n          tag_14\n          tag_15\n          jump\t// in\n        tag_14:\n          stop\n            /* \"contracts/Usuario.sol\":950:1034  function length() public view returns (uint) {... */\n        tag_7:\n            /* \"contracts/Usuario.sol\":989:993  uint */\n          0x00\n            /* \"contracts/Usuario.sol\":1012:1020  usuarios */\n          dup1\n            /* \"contracts/Usuario.sol\":1012:1027  usuarios.length */\n          dup1\n          sload\n          swap1\n          pop\n            /* \"contracts/Usuario.sol\":1005:1027  return usuarios.length */\n          swap1\n          pop\n            /* \"contracts/Usuario.sol\":950:1034  function length() public view returns (uint) {... */\n          swap1\n          jump\t// out\n            /* \"contracts/Usuario.sol\":803:884  function push( Usuario _usuario ) public {... */\n        tag_13:\n            /* \"contracts/Usuario.sol\":854:862  usuarios */\n          0x00\n            /* \"contracts/Usuario.sol\":868:876  _usuario */\n          dup2\n            /* \"contracts/Usuario.sol\":854:877  usuarios.push(_usuario) */\n          swap1\n          dup1\n          0x01\n          dup2\n          sload\n          add\n          dup1\n          dup3\n          sstore\n          dup1\n          swap2\n          pop\n          pop\n          0x01\n          swap1\n          sub\n          swap1\n          0x00\n          mstore\n          keccak256(0x00, 0x20)\n          add\n          0x00\n          swap1\n          swap2\n          swap1\n          swap2\n          swap1\n          swap2\n          0x0100\n          exp\n          dup2\n          sload\n          dup2\n          0xffffffffffffffffffffffffffffffffffffffff\n          mul\n          not\n          and\n          swap1\n          dup4\n          0xffffffffffffffffffffffffffffffffffffffff\n          and\n          mul\n          or\n          swap1\n          sstore\n          pop\n            /* \"contracts/Usuario.sol\":803:884  function push( Usuario _usuario ) public {... */\n          pop\n          jump\t// out\n            /* \"contracts/Usuario.sol\":890:944  function pop( ) public {... */\n        tag_15:\n            /* \"contracts/Usuario.sol\":923:931  usuarios */\n          0x00\n            /* \"contracts/Usuario.sol\":923:937  usuarios.pop() */\n          dup1\n          sload\n          dup1\n          tag_20\n          jumpi\n          tag_21\n          tag_22\n          jump\t// in\n        tag_21:\n        tag_20:\n          0x01\n          swap1\n          sub\n          dup2\n          dup2\n          swap1\n          0x00\n          mstore\n          keccak256(0x00, 0x20)\n          add\n          exp(0x0100, 0x00)\n          dup2\n          sload\n          swap1\n          0xffffffffffffffffffffffffffffffffffffffff\n          mul\n          not\n          and\n          swap1\n          sstore\n          swap1\n          sstore\n            /* \"contracts/Usuario.sol\":890:944  function pop( ) public {... */\n          jump\t// out\n            /* \"#utility.yul\":7:174   */\n        tag_25:\n            /* \"#utility.yul\":67:72   */\n          0x00\n            /* \"#utility.yul\":105:111   */\n          dup2\n            /* \"#utility.yul\":92:112   */\n          calldataload\n            /* \"#utility.yul\":83:112   */\n          swap1\n          pop\n            /* \"#utility.yul\":121:168   */\n          tag_27\n            /* \"#utility.yul\":162:167   */\n          dup2\n            /* \"#utility.yul\":121:168   */\n          tag_28\n          jump\t// in\n        tag_27:\n            /* \"#utility.yul\":7:174   */\n          swap3\n          swap2\n          pop\n          pop\n          jump\t// out\n            /* \"#utility.yul\":180:537   */\n        tag_12:\n            /* \"#utility.yul\":253:259   */\n          0x00\n            /* \"#utility.yul\":302:304   */\n          0x20\n            /* \"#utility.yul\":290:299   */\n          dup3\n            /* \"#utility.yul\":281:288   */\n          dup5\n            /* \"#utility.yul\":277:300   */\n          sub\n            /* \"#utility.yul\":273:305   */\n          slt\n            /* \"#utility.yul\":270:389   */\n          iszero\n          tag_30\n          jumpi\n            /* \"#utility.yul\":308:387   */\n          tag_31\n          tag_32\n          jump\t// in\n        tag_31:\n            /* \"#utility.yul\":270:389   */\n        tag_30:\n            /* \"#utility.yul\":428:429   */\n          0x00\n            /* \"#utility.yul\":453:520   */\n          tag_33\n            /* \"#utility.yul\":512:519   */\n          dup5\n            /* \"#utility.yul\":503:509   */\n          dup3\n            /* \"#utility.yul\":492:501   */\n          dup6\n            /* \"#utility.yul\":488:510   */\n          add\n            /* \"#utility.yul\":453:520   */\n          tag_25\n          jump\t// in\n        tag_33:\n            /* \"#utility.yul\":443:520   */\n          swap2\n          pop\n            /* \"#utility.yul\":399:530   */\n          pop\n            /* \"#utility.yul\":180:537   */\n          swap3\n          swap2\n          pop\n          pop\n          jump\t// out\n            /* \"#utility.yul\":543:661   */\n        tag_34:\n            /* \"#utility.yul\":630:654   */\n          tag_36\n            /* \"#utility.yul\":648:653   */\n          dup2\n            /* \"#utility.yul\":630:654   */\n          tag_37\n          jump\t// in\n        tag_36:\n            /* \"#utility.yul\":625:628   */\n          dup3\n            /* \"#utility.yul\":618:655   */\n          mstore\n            /* \"#utility.yul\":543:661   */\n          pop\n          pop\n          jump\t// out\n            /* \"#utility.yul\":667:889   */\n        tag_9:\n            /* \"#utility.yul\":760:764   */\n          0x00\n            /* \"#utility.yul\":798:800   */\n          0x20\n            /* \"#utility.yul\":787:796   */\n          dup3\n            /* \"#utility.yul\":783:801   */\n          add\n            /* \"#utility.yul\":775:801   */\n          swap1\n          pop\n            /* \"#utility.yul\":811:882   */\n          tag_39\n            /* \"#utility.yul\":879:880   */\n          0x00\n            /* \"#utility.yul\":868:877   */\n          dup4\n            /* \"#utility.yul\":864:881   */\n          add\n            /* \"#utility.yul\":855:861   */\n          dup5\n            /* \"#utility.yul\":811:882   */\n          tag_34\n          jump\t// in\n        tag_39:\n            /* \"#utility.yul\":667:889   */\n          swap3\n          swap2\n          pop\n          pop\n          jump\t// out\n            /* \"#utility.yul\":976:1072   */\n        tag_42:\n            /* \"#utility.yul\":1013:1020   */\n          0x00\n            /* \"#utility.yul\":1042:1066   */\n          tag_44\n            /* \"#utility.yul\":1060:1065   */\n          dup3\n            /* \"#utility.yul\":1042:1066   */\n          tag_45\n          jump\t// in\n        tag_44:\n            /* \"#utility.yul\":1031:1066   */\n          swap1\n          pop\n            /* \"#utility.yul\":976:1072   */\n          swap2\n          swap1\n          pop\n          jump\t// out\n            /* \"#utility.yul\":1078:1188   */\n        tag_46:\n            /* \"#utility.yul\":1129:1136   */\n          0x00\n            /* \"#utility.yul\":1158:1182   */\n          tag_48\n            /* \"#utility.yul\":1176:1181   */\n          dup3\n            /* \"#utility.yul\":1158:1182   */\n          tag_42\n          jump\t// in\n        tag_48:\n            /* \"#utility.yul\":1147:1182   */\n          swap1\n          pop\n            /* \"#utility.yul\":1078:1188   */\n          swap2\n          swap1\n          pop\n          jump\t// out\n            /* \"#utility.yul\":1194:1320   */\n        tag_45:\n            /* \"#utility.yul\":1231:1238   */\n          0x00\n            /* \"#utility.yul\":1271:1313   */\n          0xffffffffffffffffffffffffffffffffffffffff\n            /* \"#utility.yul\":1264:1269   */\n          dup3\n            /* \"#utility.yul\":1260:1314   */\n          and\n            /* \"#utility.yul\":1249:1314   */\n          swap1\n          pop\n            /* \"#utility.yul\":1194:1320   */\n          swap2\n          swap1\n          pop\n          jump\t// out\n            /* \"#utility.yul\":1326:1403   */\n        tag_37:\n            /* \"#utility.yul\":1363:1370   */\n          0x00\n            /* \"#utility.yul\":1392:1397   */\n          dup2\n            /* \"#utility.yul\":1381:1397   */\n          swap1\n          pop\n            /* \"#utility.yul\":1326:1403   */\n          swap2\n          swap1\n          pop\n          jump\t// out\n            /* \"#utility.yul\":1409:1589   */\n        tag_22:\n            /* \"#utility.yul\":1457:1534   */\n          0x4e487b7100000000000000000000000000000000000000000000000000000000\n            /* \"#utility.yul\":1454:1455   */\n          0x00\n            /* \"#utility.yul\":1447:1535   */\n          mstore\n            /* \"#utility.yul\":1554:1558   */\n          0x31\n            /* \"#utility.yul\":1551:1552   */\n          0x04\n            /* \"#utility.yul\":1544:1559   */\n          mstore\n            /* \"#utility.yul\":1578:1582   */\n          0x24\n            /* \"#utility.yul\":1575:1576   */\n          0x00\n            /* \"#utility.yul\":1568:1583   */\n          revert\n            /* \"#utility.yul\":1718:1835   */\n        tag_32:\n            /* \"#utility.yul\":1827:1828   */\n          0x00\n            /* \"#utility.yul\":1824:1825   */\n          dup1\n            /* \"#utility.yul\":1817:1829   */\n          revert\n            /* \"#utility.yul\":1841:1991   */\n        tag_28:\n            /* \"#utility.yul\":1928:1966   */\n          tag_56\n            /* \"#utility.yul\":1960:1965   */\n          dup2\n            /* \"#utility.yul\":1928:1966   */\n          tag_46\n          jump\t// in\n        tag_56:\n            /* \"#utility.yul\":1921:1926   */\n          dup2\n            /* \"#utility.yul\":1918:1967   */\n          eq\n            /* \"#utility.yul\":1908:1985   */\n          tag_57\n          jumpi\n            /* \"#utility.yul\":1981:1982   */\n          0x00\n            /* \"#utility.yul\":1978:1979   */\n          dup1\n            /* \"#utility.yul\":1971:1983   */\n          revert\n            /* \"#utility.yul\":1908:1985   */\n        tag_57:\n            /* \"#utility.yul\":1841:1991   */\n          pop\n          jump\t// out\n\n        auxdata: 0xa26469706673582212204c47865383e5d41855da9cd92c1bcec9609ca3aeaf84a9d33b9c294c6b13a9b564736f6c63430008070033\n    }\n}\n",
				"bytecode": {
					"linkReferences": {},
					"object": "608060405234801561001057600080fd5b506040516109573803806109578339818101604052810190610032919061022e565b816000806101000a81548173ffffffffffffffffffffffffffffffffffffffff021916908373ffffffffffffffffffffffffffffffffffffffff16021790555080600190805190602001906100889291906100f9565b506040516100959061017f565b604051809103906000f0801580156100b1573d6000803e3d6000fd5b50600260006101000a81548173ffffffffffffffffffffffffffffffffffffffff021916908373ffffffffffffffffffffffffffffffffffffffff1602179055505050610442565b82805461010590610345565b90600052602060002090601f016020900481019282610127576000855561016e565b82601f1061014057805160ff191683800117855561016e565b8280016001018555821561016e579182015b8281111561016d578251825591602001919060010190610152565b5b50905061017b919061018c565b5090565b6102a0806106b783390190565b5b808211156101a557600081600090555060010161018d565b5090565b60006101bc6101b7846102af565b61028a565b9050828152602081018484840111156101d8576101d761040b565b5b6101e3848285610312565b509392505050565b6000815190506101fa8161042b565b92915050565b600082601f83011261021557610214610406565b5b81516102258482602086016101a9565b91505092915050565b6000806040838503121561024557610244610415565b5b6000610253858286016101eb565b925050602083015167ffffffffffffffff81111561027457610273610410565b5b61028085828601610200565b9150509250929050565b60006102946102a5565b90506102a08282610377565b919050565b6000604051905090565b600067ffffffffffffffff8211156102ca576102c96103d7565b5b6102d38261041a565b9050602081019050919050565b60006102eb826102f2565b9050919050565b600073ffffffffffffffffffffffffffffffffffffffff82169050919050565b60005b83811015610330578082015181840152602081019050610315565b8381111561033f576000848401525b50505050565b6000600282049050600182168061035d57607f821691505b60208210811415610371576103706103a8565b5b50919050565b6103808261041a565b810181811067ffffffffffffffff8211171561039f5761039e6103d7565b5b80604052505050565b7f4e487b7100000000000000000000000000000000000000000000000000000000600052602260045260246000fd5b7f4e487b7100000000000000000000000000000000000000000000000000000000600052604160045260246000fd5b600080fd5b600080fd5b600080fd5b600080fd5b6000601f19601f8301169050919050565b610434816102e0565b811461043f57600080fd5b50565b610266806104516000396000f3fe608060405234801561001057600080fd5b506004361061002b5760003560e01c80635ad0608014610030575b600080fd5b61004a6004803603810190610045919061010d565b610060565b6040516100579190610158565b60405180910390f35b6000600260009054906101000a900473ffffffffffffffffffffffffffffffffffffffff1673ffffffffffffffffffffffffffffffffffffffff166389b09de7836040518263ffffffff1660e01b81526004016100bd9190610173565b600060405180830381600087803b1580156100d757600080fd5b505af11580156100eb573d6000803e3d6000fd5b5050505060019050919050565b60008135905061010781610219565b92915050565b60006020828403121561012357610122610214565b5b6000610131848285016100f8565b91505092915050565b610143816101a0565b82525050565b610152816101de565b82525050565b600060208201905061016d600083018461013a565b92915050565b60006020820190506101886000830184610149565b92915050565b6000610199826101be565b9050919050565b60008115159050919050565b60006101b78261018e565b9050919050565b600073ffffffffffffffffffffffffffffffffffffffff82169050919050565b60006101e9826101f0565b9050919050565b60006101fb82610202565b9050919050565b600061020d826101be565b9050919050565b600080fd5b610222816101ac565b811461022d57600080fd5b5056fea26469706673582212204b7efdf325c025dfa845a6730f851958d4b4a743bb3fd20ca508cb04204a94e164736f6c63430008070033608060405234801561001057600080fd5b50610280806100206000396000f3fe608060405234801561001057600080fd5b50600436106100415760003560e01c80631f7b6d321461004657806389b09de714610064578063a4ece52c14610080575b600080fd5b61004e61008a565b60405161005b9190610196565b60405180910390f35b61007e6004803603810190610079919061015a565b610096565b005b6100886100fc565b005b60008080549050905090565b6000819080600181540180825580915050600190039060005260206000200160009091909190916101000a81548173ffffffffffffffffffffffffffffffffffffffff021916908373ffffffffffffffffffffffffffffffffffffffff16021790555050565b600080548061010e5761010d6101ff565b5b6001900381819060005260206000200160006101000a81549073ffffffffffffffffffffffffffffffffffffffff02191690559055565b60008135905061015481610233565b92915050565b6000602082840312156101705761016f61022e565b5b600061017e84828501610145565b91505092915050565b610190816101f5565b82525050565b60006020820190506101ab6000830184610187565b92915050565b60006101bc826101d5565b9050919050565b60006101ce826101b1565b9050919050565b600073ffffffffffffffffffffffffffffffffffffffff82169050919050565b6000819050919050565b7f4e487b7100000000000000000000000000000000000000000000000000000000600052603160045260246000fd5b600080fd5b61023c816101c3565b811461024757600080fd5b5056fea26469706673582212204c47865383e5d41855da9cd92c1bcec9609ca3aeaf84a9d33b9c294c6b13a9b564736f6c63430008070033",
					"opcodes": "PUSH1 0x80 PUSH1 0x40 MSTORE CALLVALUE DUP1 ISZERO PUSH2 0x10 JUMPI PUSH1 0x0 DUP1 REVERT JUMPDEST POP PUSH1 0x40 MLOAD PUSH2 0x957 CODESIZE SUB DUP1 PUSH2 0x957 DUP4 CODECOPY DUP2 DUP2 ADD PUSH1 0x40 MSTORE DUP2 ADD SWAP1 PUSH2 0x32 SWAP2 SWAP1 PUSH2 0x22E JUMP JUMPDEST DUP2 PUSH1 0x0 DUP1 PUSH2 0x100 EXP DUP2 SLOAD DUP2 PUSH20 0xFFFFFFFFFFFFFFFFFFFFFFFFFFFFFFFFFFFFFFFF MUL NOT AND SWAP1 DUP4 PUSH20 0xFFFFFFFFFFFFFFFFFFFFFFFFFFFFFFFFFFFFFFFF AND MUL OR SWAP1 SSTORE POP DUP1 PUSH1 0x1 SWAP1 DUP1 MLOAD SWAP1 PUSH1 0x20 ADD SWAP1 PUSH2 0x88 SWAP3 SWAP2 SWAP1 PUSH2 0xF9 JUMP JUMPDEST POP PUSH1 0x40 MLOAD PUSH2 0x95 SWAP1 PUSH2 0x17F JUMP JUMPDEST PUSH1 0x40 MLOAD DUP1 SWAP2 SUB SWAP1 PUSH1 0x0 CREATE DUP1 ISZERO DUP1 ISZERO PUSH2 0xB1 JUMPI RETURNDATASIZE PUSH1 0x0 DUP1 RETURNDATACOPY RETURNDATASIZE PUSH1 0x0 REVERT JUMPDEST POP PUSH1 0x2 PUSH1 0x0 PUSH2 0x100 EXP DUP2 SLOAD DUP2 PUSH20 0xFFFFFFFFFFFFFFFFFFFFFFFFFFFFFFFFFFFFFFFF MUL NOT AND SWAP1 DUP4 PUSH20 0xFFFFFFFFFFFFFFFFFFFFFFFFFFFFFFFFFFFFFFFF AND MUL OR SWAP1 SSTORE POP POP POP PUSH2 0x442 JUMP JUMPDEST DUP3 DUP1 SLOAD PUSH2 0x105 SWAP1 PUSH2 0x345 JUMP JUMPDEST SWAP1 PUSH1 0x0 MSTORE PUSH1 0x20 PUSH1 0x0 KECCAK256 SWAP1 PUSH1 0x1F ADD PUSH1 0x20 SWAP1 DIV DUP2 ADD SWAP3 DUP3 PUSH2 0x127 JUMPI PUSH1 0x0 DUP6 SSTORE PUSH2 0x16E JUMP JUMPDEST DUP3 PUSH1 0x1F LT PUSH2 0x140 JUMPI DUP1 MLOAD PUSH1 0xFF NOT AND DUP4 DUP1 ADD OR DUP6 SSTORE PUSH2 0x16E JUMP JUMPDEST DUP3 DUP1 ADD PUSH1 0x1 ADD DUP6 SSTORE DUP3 ISZERO PUSH2 0x16E JUMPI SWAP2 DUP3 ADD JUMPDEST DUP3 DUP2 GT ISZERO PUSH2 0x16D JUMPI DUP3 MLOAD DUP3 SSTORE SWAP2 PUSH1 0x20 ADD SWAP2 SWAP1 PUSH1 0x1 ADD SWAP1 PUSH2 0x152 JUMP JUMPDEST JUMPDEST POP SWAP1 POP PUSH2 0x17B SWAP2 SWAP1 PUSH2 0x18C JUMP JUMPDEST POP SWAP1 JUMP JUMPDEST PUSH2 0x2A0 DUP1 PUSH2 0x6B7 DUP4 CODECOPY ADD SWAP1 JUMP JUMPDEST JUMPDEST DUP1 DUP3 GT ISZERO PUSH2 0x1A5 JUMPI PUSH1 0x0 DUP2 PUSH1 0x0 SWAP1 SSTORE POP PUSH1 0x1 ADD PUSH2 0x18D JUMP JUMPDEST POP SWAP1 JUMP JUMPDEST PUSH1 0x0 PUSH2 0x1BC PUSH2 0x1B7 DUP5 PUSH2 0x2AF JUMP JUMPDEST PUSH2 0x28A JUMP JUMPDEST SWAP1 POP DUP3 DUP2 MSTORE PUSH1 0x20 DUP2 ADD DUP5 DUP5 DUP5 ADD GT ISZERO PUSH2 0x1D8 JUMPI PUSH2 0x1D7 PUSH2 0x40B JUMP JUMPDEST JUMPDEST PUSH2 0x1E3 DUP5 DUP3 DUP6 PUSH2 0x312 JUMP JUMPDEST POP SWAP4 SWAP3 POP POP POP JUMP JUMPDEST PUSH1 0x0 DUP2 MLOAD SWAP1 POP PUSH2 0x1FA DUP2 PUSH2 0x42B JUMP JUMPDEST SWAP3 SWAP2 POP POP JUMP JUMPDEST PUSH1 0x0 DUP3 PUSH1 0x1F DUP4 ADD SLT PUSH2 0x215 JUMPI PUSH2 0x214 PUSH2 0x406 JUMP JUMPDEST JUMPDEST DUP2 MLOAD PUSH2 0x225 DUP5 DUP3 PUSH1 0x20 DUP7 ADD PUSH2 0x1A9 JUMP JUMPDEST SWAP2 POP POP SWAP3 SWAP2 POP POP JUMP JUMPDEST PUSH1 0x0 DUP1 PUSH1 0x40 DUP4 DUP6 SUB SLT ISZERO PUSH2 0x245 JUMPI PUSH2 0x244 PUSH2 0x415 JUMP JUMPDEST JUMPDEST PUSH1 0x0 PUSH2 0x253 DUP6 DUP3 DUP7 ADD PUSH2 0x1EB JUMP JUMPDEST SWAP3 POP POP PUSH1 0x20 DUP4 ADD MLOAD PUSH8 0xFFFFFFFFFFFFFFFF DUP2 GT ISZERO PUSH2 0x274 JUMPI PUSH2 0x273 PUSH2 0x410 JUMP JUMPDEST JUMPDEST PUSH2 0x280 DUP6 DUP3 DUP7 ADD PUSH2 0x200 JUMP JUMPDEST SWAP2 POP POP SWAP3 POP SWAP3 SWAP1 POP JUMP JUMPDEST PUSH1 0x0 PUSH2 0x294 PUSH2 0x2A5 JUMP JUMPDEST SWAP1 POP PUSH2 0x2A0 DUP3 DUP3 PUSH2 0x377 JUMP JUMPDEST SWAP2 SWAP1 POP JUMP JUMPDEST PUSH1 0x0 PUSH1 0x40 MLOAD SWAP1 POP SWAP1 JUMP JUMPDEST PUSH1 0x0 PUSH8 0xFFFFFFFFFFFFFFFF DUP3 GT ISZERO PUSH2 0x2CA JUMPI PUSH2 0x2C9 PUSH2 0x3D7 JUMP JUMPDEST JUMPDEST PUSH2 0x2D3 DUP3 PUSH2 0x41A JUMP JUMPDEST SWAP1 POP PUSH1 0x20 DUP2 ADD SWAP1 POP SWAP2 SWAP1 POP JUMP JUMPDEST PUSH1 0x0 PUSH2 0x2EB DUP3 PUSH2 0x2F2 JUMP JUMPDEST SWAP1 POP SWAP2 SWAP1 POP JUMP JUMPDEST PUSH1 0x0 PUSH20 0xFFFFFFFFFFFFFFFFFFFFFFFFFFFFFFFFFFFFFFFF DUP3 AND SWAP1 POP SWAP2 SWAP1 POP JUMP JUMPDEST PUSH1 0x0 JUMPDEST DUP4 DUP2 LT ISZERO PUSH2 0x330 JUMPI DUP1 DUP3 ADD MLOAD DUP2 DUP5 ADD MSTORE PUSH1 0x20 DUP2 ADD SWAP1 POP PUSH2 0x315 JUMP JUMPDEST DUP4 DUP2 GT ISZERO PUSH2 0x33F JUMPI PUSH1 0x0 DUP5 DUP5 ADD MSTORE JUMPDEST POP POP POP POP JUMP JUMPDEST PUSH1 0x0 PUSH1 0x2 DUP3 DIV SWAP1 POP PUSH1 0x1 DUP3 AND DUP1 PUSH2 0x35D JUMPI PUSH1 0x7F DUP3 AND SWAP2 POP JUMPDEST PUSH1 0x20 DUP3 LT DUP2 EQ ISZERO PUSH2 0x371 JUMPI PUSH2 0x370 PUSH2 0x3A8 JUMP JUMPDEST JUMPDEST POP SWAP2 SWAP1 POP JUMP JUMPDEST PUSH2 0x380 DUP3 PUSH2 0x41A JUMP JUMPDEST DUP2 ADD DUP2 DUP2 LT PUSH8 0xFFFFFFFFFFFFFFFF DUP3 GT OR ISZERO PUSH2 0x39F JUMPI PUSH2 0x39E PUSH2 0x3D7 JUMP JUMPDEST JUMPDEST DUP1 PUSH1 0x40 MSTORE POP POP POP JUMP JUMPDEST PUSH32 0x4E487B7100000000000000000000000000000000000000000000000000000000 PUSH1 0x0 MSTORE PUSH1 0x22 PUSH1 0x4 MSTORE PUSH1 0x24 PUSH1 0x0 REVERT JUMPDEST PUSH32 0x4E487B7100000000000000000000000000000000000000000000000000000000 PUSH1 0x0 MSTORE PUSH1 0x41 PUSH1 0x4 MSTORE PUSH1 0x24 PUSH1 0x0 REVERT JUMPDEST PUSH1 0x0 DUP1 REVERT JUMPDEST PUSH1 0x0 DUP1 REVERT JUMPDEST PUSH1 0x0 DUP1 REVERT JUMPDEST PUSH1 0x0 DUP1 REVERT JUMPDEST PUSH1 0x0 PUSH1 0x1F NOT PUSH1 0x1F DUP4 ADD AND SWAP1 POP SWAP2 SWAP1 POP JUMP JUMPDEST PUSH2 0x434 DUP2 PUSH2 0x2E0 JUMP JUMPDEST DUP2 EQ PUSH2 0x43F JUMPI PUSH1 0x0 DUP1 REVERT JUMPDEST POP JUMP JUMPDEST PUSH2 0x266 DUP1 PUSH2 0x451 PUSH1 0x0 CODECOPY PUSH1 0x0 RETURN INVALID PUSH1 0x80 PUSH1 0x40 MSTORE CALLVALUE DUP1 ISZERO PUSH2 0x10 JUMPI PUSH1 0x0 DUP1 REVERT JUMPDEST POP PUSH1 0x4 CALLDATASIZE LT PUSH2 0x2B JUMPI PUSH1 0x0 CALLDATALOAD PUSH1 0xE0 SHR DUP1 PUSH4 0x5AD06080 EQ PUSH2 0x30 JUMPI JUMPDEST PUSH1 0x0 DUP1 REVERT JUMPDEST PUSH2 0x4A PUSH1 0x4 DUP1 CALLDATASIZE SUB DUP2 ADD SWAP1 PUSH2 0x45 SWAP2 SWAP1 PUSH2 0x10D JUMP JUMPDEST PUSH2 0x60 JUMP JUMPDEST PUSH1 0x40 MLOAD PUSH2 0x57 SWAP2 SWAP1 PUSH2 0x158 JUMP JUMPDEST PUSH1 0x40 MLOAD DUP1 SWAP2 SUB SWAP1 RETURN JUMPDEST PUSH1 0x0 PUSH1 0x2 PUSH1 0x0 SWAP1 SLOAD SWAP1 PUSH2 0x100 EXP SWAP1 DIV PUSH20 0xFFFFFFFFFFFFFFFFFFFFFFFFFFFFFFFFFFFFFFFF AND PUSH20 0xFFFFFFFFFFFFFFFFFFFFFFFFFFFFFFFFFFFFFFFF AND PUSH4 0x89B09DE7 DUP4 PUSH1 0x40 MLOAD DUP3 PUSH4 0xFFFFFFFF AND PUSH1 0xE0 SHL DUP2 MSTORE PUSH1 0x4 ADD PUSH2 0xBD SWAP2 SWAP1 PUSH2 0x173 JUMP JUMPDEST PUSH1 0x0 PUSH1 0x40 MLOAD DUP1 DUP4 SUB DUP2 PUSH1 0x0 DUP8 DUP1 EXTCODESIZE ISZERO DUP1 ISZERO PUSH2 0xD7 JUMPI PUSH1 0x0 DUP1 REVERT JUMPDEST POP GAS CALL ISZERO DUP1 ISZERO PUSH2 0xEB JUMPI RETURNDATASIZE PUSH1 0x0 DUP1 RETURNDATACOPY RETURNDATASIZE PUSH1 0x0 REVERT JUMPDEST POP POP POP POP PUSH1 0x1 SWAP1 POP SWAP2 SWAP1 POP JUMP JUMPDEST PUSH1 0x0 DUP2 CALLDATALOAD SWAP1 POP PUSH2 0x107 DUP2 PUSH2 0x219 JUMP JUMPDEST SWAP3 SWAP2 POP POP JUMP JUMPDEST PUSH1 0x0 PUSH1 0x20 DUP3 DUP5 SUB SLT ISZERO PUSH2 0x123 JUMPI PUSH2 0x122 PUSH2 0x214 JUMP JUMPDEST JUMPDEST PUSH1 0x0 PUSH2 0x131 DUP5 DUP3 DUP6 ADD PUSH2 0xF8 JUMP JUMPDEST SWAP2 POP POP SWAP3 SWAP2 POP POP JUMP JUMPDEST PUSH2 0x143 DUP2 PUSH2 0x1A0 JUMP JUMPDEST DUP3 MSTORE POP POP JUMP JUMPDEST PUSH2 0x152 DUP2 PUSH2 0x1DE JUMP JUMPDEST DUP3 MSTORE POP POP JUMP JUMPDEST PUSH1 0x0 PUSH1 0x20 DUP3 ADD SWAP1 POP PUSH2 0x16D PUSH1 0x0 DUP4 ADD DUP5 PUSH2 0x13A JUMP JUMPDEST SWAP3 SWAP2 POP POP JUMP JUMPDEST PUSH1 0x0 PUSH1 0x20 DUP3 ADD SWAP1 POP PUSH2 0x188 PUSH1 0x0 DUP4 ADD DUP5 PUSH2 0x149 JUMP JUMPDEST SWAP3 SWAP2 POP POP JUMP JUMPDEST PUSH1 0x0 PUSH2 0x199 DUP3 PUSH2 0x1BE JUMP JUMPDEST SWAP1 POP SWAP2 SWAP1 POP JUMP JUMPDEST PUSH1 0x0 DUP2 ISZERO ISZERO SWAP1 POP SWAP2 SWAP1 POP JUMP JUMPDEST PUSH1 0x0 PUSH2 0x1B7 DUP3 PUSH2 0x18E JUMP JUMPDEST SWAP1 POP SWAP2 SWAP1 POP JUMP JUMPDEST PUSH1 0x0 PUSH20 0xFFFFFFFFFFFFFFFFFFFFFFFFFFFFFFFFFFFFFFFF DUP3 AND SWAP1 POP SWAP2 SWAP1 POP JUMP JUMPDEST PUSH1 0x0 PUSH2 0x1E9 DUP3 PUSH2 0x1F0 JUMP JUMPDEST SWAP1 POP SWAP2 SWAP1 POP JUMP JUMPDEST PUSH1 0x0 PUSH2 0x1FB DUP3 PUSH2 0x202 JUMP JUMPDEST SWAP1 POP SWAP2 SWAP1 POP JUMP JUMPDEST PUSH1 0x0 PUSH2 0x20D DUP3 PUSH2 0x1BE JUMP JUMPDEST SWAP1 POP SWAP2 SWAP1 POP JUMP JUMPDEST PUSH1 0x0 DUP1 REVERT JUMPDEST PUSH2 0x222 DUP2 PUSH2 0x1AC JUMP JUMPDEST DUP2 EQ PUSH2 0x22D JUMPI PUSH1 0x0 DUP1 REVERT JUMPDEST POP JUMP INVALID LOG2 PUSH5 0x6970667358 0x22 SLT KECCAK256 0x4B PUSH31 0xFDF325C025DFA845A6730F851958D4B4A743BB3FD20CA508CB04204A94E164 PUSH20 0x6F6C634300080700336080604052348015610010 JUMPI PUSH1 0x0 DUP1 REVERT JUMPDEST POP PUSH2 0x280 DUP1 PUSH2 0x20 PUSH1 0x0 CODECOPY PUSH1 0x0 RETURN INVALID PUSH1 0x80 PUSH1 0x40 MSTORE CALLVALUE DUP1 ISZERO PUSH2 0x10 JUMPI PUSH1 0x0 DUP1 REVERT JUMPDEST POP PUSH1 0x4 CALLDATASIZE LT PUSH2 0x41 JUMPI PUSH1 0x0 CALLDATALOAD PUSH1 0xE0 SHR DUP1 PUSH4 0x1F7B6D32 EQ PUSH2 0x46 JUMPI DUP1 PUSH4 0x89B09DE7 EQ PUSH2 0x64 JUMPI DUP1 PUSH4 0xA4ECE52C EQ PUSH2 0x80 JUMPI JUMPDEST PUSH1 0x0 DUP1 REVERT JUMPDEST PUSH2 0x4E PUSH2 0x8A JUMP JUMPDEST PUSH1 0x40 MLOAD PUSH2 0x5B SWAP2 SWAP1 PUSH2 0x196 JUMP JUMPDEST PUSH1 0x40 MLOAD DUP1 SWAP2 SUB SWAP1 RETURN JUMPDEST PUSH2 0x7E PUSH1 0x4 DUP1 CALLDATASIZE SUB DUP2 ADD SWAP1 PUSH2 0x79 SWAP2 SWAP1 PUSH2 0x15A JUMP JUMPDEST PUSH2 0x96 JUMP JUMPDEST STOP JUMPDEST PUSH2 0x88 PUSH2 0xFC JUMP JUMPDEST STOP JUMPDEST PUSH1 0x0 DUP1 DUP1 SLOAD SWAP1 POP SWAP1 POP SWAP1 JUMP JUMPDEST PUSH1 0x0 DUP2 SWAP1 DUP1 PUSH1 0x1 DUP2 SLOAD ADD DUP1 DUP3 SSTORE DUP1 SWAP2 POP POP PUSH1 0x1 SWAP1 SUB SWAP1 PUSH1 0x0 MSTORE PUSH1 0x20 PUSH1 0x0 KECCAK256 ADD PUSH1 0x0 SWAP1 SWAP2 SWAP1 SWAP2 SWAP1 SWAP2 PUSH2 0x100 EXP DUP2 SLOAD DUP2 PUSH20 0xFFFFFFFFFFFFFFFFFFFFFFFFFFFFFFFFFFFFFFFF MUL NOT AND SWAP1 DUP4 PUSH20 0xFFFFFFFFFFFFFFFFFFFFFFFFFFFFFFFFFFFFFFFF AND MUL OR SWAP1 SSTORE POP POP JUMP JUMPDEST PUSH1 0x0 DUP1 SLOAD DUP1 PUSH2 0x10E JUMPI PUSH2 0x10D PUSH2 0x1FF JUMP JUMPDEST JUMPDEST PUSH1 0x1 SWAP1 SUB DUP2 DUP2 SWAP1 PUSH1 0x0 MSTORE PUSH1 0x20 PUSH1 0x0 KECCAK256 ADD PUSH1 0x0 PUSH2 0x100 EXP DUP2 SLOAD SWAP1 PUSH20 0xFFFFFFFFFFFFFFFFFFFFFFFFFFFFFFFFFFFFFFFF MUL NOT AND SWAP1 SSTORE SWAP1 SSTORE JUMP JUMPDEST PUSH1 0x0 DUP2 CALLDATALOAD SWAP1 POP PUSH2 0x154 DUP2 PUSH2 0x233 JUMP JUMPDEST SWAP3 SWAP2 POP POP JUMP JUMPDEST PUSH1 0x0 PUSH1 0x20 DUP3 DUP5 SUB SLT ISZERO PUSH2 0x170 JUMPI PUSH2 0x16F PUSH2 0x22E JUMP JUMPDEST JUMPDEST PUSH1 0x0 PUSH2 0x17E DUP5 DUP3 DUP6 ADD PUSH2 0x145 JUMP JUMPDEST SWAP2 POP POP SWAP3 SWAP2 POP POP JUMP JUMPDEST PUSH2 0x190 DUP2 PUSH2 0x1F5 JUMP JUMPDEST DUP3 MSTORE POP POP JUMP JUMPDEST PUSH1 0x0 PUSH1 0x20 DUP3 ADD SWAP1 POP PUSH2 0x1AB PUSH1 0x0 DUP4 ADD DUP5 PUSH2 0x187 JUMP JUMPDEST SWAP3 SWAP2 POP POP JUMP JUMPDEST PUSH1 0x0 PUSH2 0x1BC DUP3 PUSH2 0x1D5 JUMP JUMPDEST SWAP1 POP SWAP2 SWAP1 POP JUMP JUMPDEST PUSH1 0x0 PUSH2 0x1CE DUP3 PUSH2 0x1B1 JUMP JUMPDEST SWAP1 POP SWAP2 SWAP1 POP JUMP JUMPDEST PUSH1 0x0 PUSH20 0xFFFFFFFFFFFFFFFFFFFFFFFFFFFFFFFFFFFFFFFF DUP3 AND SWAP1 POP SWAP2 SWAP1 POP JUMP JUMPDEST PUSH1 0x0 DUP2 SWAP1 POP SWAP2 SWAP1 POP JUMP JUMPDEST PUSH32 0x4E487B7100000000000000000000000000000000000000000000000000000000 PUSH1 0x0 MSTORE PUSH1 0x31 PUSH1 0x4 MSTORE PUSH1 0x24 PUSH1 0x0 REVERT JUMPDEST PUSH1 0x0 DUP1 REVERT JUMPDEST PUSH2 0x23C DUP2 PUSH2 0x1C3 JUMP JUMPDEST DUP2 EQ PUSH2 0x247 JUMPI PUSH1 0x0 DUP1 REVERT JUMPDEST POP JUMP INVALID LOG2 PUSH5 0x6970667358 0x22 SLT KECCAK256 0x4C SELFBALANCE DUP7 MSTORE8 DUP4 0xE5 0xD4 XOR SSTORE 0xDA SWAP13 0xD9 0x2C SHL 0xCE 0xC9 PUSH1 0x9C LOG3 0xAE 0xAF DUP5 0xA9 0xD3 EXTCODESIZE SWAP13 0x29 0x4C PUSH12 0x13A9B564736F6C6343000807 STOP CALLER "
				},
				"gasEstimates": {
					"creation": {
						"codeDepositCost": "122800",
						"executionCost": "infinite",
						"totalCost": "infinite"
					},
					"external": {
						"addUsuario(address)": "infinite"
					}
				},
				"methodIdentifiers": {
					"addUsuario(address)": "5ad06080"
				}
			},
			"storageLayout": {
				"storage": [
					{
						"astId": 26,
						"contract": "contracts/Usuario.sol:Grupo",
						"label": "identificador",
						"offset": 0,
						"slot": "0",
						"type": "t_address"
					},
					{
						"astId": 28,
						"contract": "contracts/Usuario.sol:Grupo",
						"label": "apodo",
						"offset": 0,
						"slot": "1",
						"type": "t_string_storage"
					},
					{
						"astId": 31,
						"contract": "contracts/Usuario.sol:Grupo",
						"label": "_matrisUsuario",
						"offset": 0,
						"slot": "2",
						"type": "t_contract(MatrisUsuario)112"
					}
				],
				"types": {
					"t_address": {
						"encoding": "inplace",
						"label": "address",
						"numberOfBytes": "20"
					},
					"t_contract(MatrisUsuario)112": {
						"encoding": "inplace",
						"label": "contract MatrisUsuario",
						"numberOfBytes": "20"
					},
					"t_string_storage": {
						"encoding": "bytes",
						"label": "string",
						"numberOfBytes": "32"
					}
				}
			},
			"userdoc": {
				"kind": "user",
				"methods": {},
				"version": 1
			}
		}
	}
}