{
	"data": {
		"bytecode": {
			"linkReferences": {},
			"object": "608060405234801561001057600080fd5b50611bce806100206000396000f3fe60806040523480156200001157600080fd5b5060043610620000465760003560e01c80631a275051146200004b578063becba4f8146200006d578063f8a8fd6d146200008f575b600080fd5b620000556200009b565b604051620000649190620006a4565b60405180910390f35b6200007762000149565b6040516200008691906200066a565b60405180910390f35b62000099620001f3565b005b606060008054906101000a900473ffffffffffffffffffffffffffffffffffffffff1673ffffffffffffffffffffffffffffffffffffffff16637a7c053f6040518163ffffffff1660e01b815260040160006040518083038186803b1580156200010457600080fd5b505afa15801562000119573d6000803e3d6000fd5b505050506040513d6000823e3d601f19601f820116820180604052508101906200014491906200059b565b905090565b60008060009054906101000a900473ffffffffffffffffffffffffffffffffffffffff1673ffffffffffffffffffffffffffffffffffffffff1663eeabe2a56040518163ffffffff1660e01b815260040160206040518083038186803b158015620001b357600080fd5b505afa158015620001c8573d6000803e3d6000fd5b505050506040513d601f19601f82011682018060405250810190620001ee919062000543565b905090565b620001fd6200020b565b50620002086200028a565b50565b60006040516200021b9062000487565b6200022690620006c8565b604051809103906000f08015801562000243573d6000803e3d6000fd5b506000806101000a81548173ffffffffffffffffffffffffffffffffffffffff021916908373ffffffffffffffffffffffffffffffffffffffff1602179055506001905090565b60006040516200029a9062000495565b604051809103906000f080158015620002b7573d6000803e3d6000fd5b50600160006101000a81548173ffffffffffffffffffffffffffffffffffffffff021916908373ffffffffffffffffffffffffffffffffffffffff160217905550600160009054906101000a900473ffffffffffffffffffffffffffffffffffffffff1673ffffffffffffffffffffffffffffffffffffffff16632584ac94336040518263ffffffff1660e01b81526004016200035591906200066a565b602060405180830381600087803b1580156200037057600080fd5b505af115801562000385573d6000803e3d6000fd5b505050506040513d601f19601f82011682018060405250810190620003ab91906200056f565b5060008054906101000a900473ffffffffffffffffffffffffffffffffffffffff1673ffffffffffffffffffffffffffffffffffffffff16635ad06080600160009054906101000a900473ffffffffffffffffffffffffffffffffffffffff166040518263ffffffff1660e01b815260040162000429919062000687565b602060405180830381600087803b1580156200044457600080fd5b505af115801562000459573d6000803e3d6000fd5b505050506040513d601f19601f820116820180604052508101906200047f91906200056f565b506001905090565b610eb580620008d783390190565b61040d806200178c83390190565b6000620004ba620004b48462000713565b620006ea565b905082815260208101848484011115620004d357600080fd5b620004e0848285620007cd565b509392505050565b600081519050620004f981620008a2565b92915050565b6000815190506200051081620008bc565b92915050565b600082601f8301126200052857600080fd5b81516200053a848260208601620004a3565b91505092915050565b6000602082840312156200055657600080fd5b60006200056684828501620004e8565b91505092915050565b6000602082840312156200058257600080fd5b60006200059284828501620004ff565b91505092915050565b600060208284031215620005ae57600080fd5b600082015167ffffffffffffffff811115620005c957600080fd5b620005d78482850162000516565b91505092915050565b620005eb8162000765565b82525050565b620005fc81620007a5565b82525050565b60006200060f8262000749565b6200061b818562000754565b93506200062d818560208601620007cd565b620006388162000868565b840191505092915050565b60006200065260038362000754565b91506200065f8262000879565b602082019050919050565b6000602082019050620006816000830184620005e0565b92915050565b60006020820190506200069e6000830184620005f1565b92915050565b60006020820190508181036000830152620006c0818462000602565b905092915050565b60006020820190508181036000830152620006e38162000643565b9050919050565b6000620006f662000709565b905062000704828262000803565b919050565b6000604051905090565b600067ffffffffffffffff82111562000731576200073062000839565b5b6200073c8262000868565b9050602081019050919050565b600081519050919050565b600082825260208201905092915050565b6000620007728262000785565b9050919050565b60008115159050919050565b600073ffffffffffffffffffffffffffffffffffffffff82169050919050565b6000620007b282620007b9565b9050919050565b6000620007c68262000785565b9050919050565b60005b83811015620007ed578082015181840152602081019050620007d0565b83811115620007fd576000848401525b50505050565b6200080e8262000868565b810181811067ffffffffffffffff8211171562000830576200082f62000839565b5b80604052505050565b7f4e487b7100000000000000000000000000000000000000000000000000000000600052604160045260246000fd5b6000601f19601f8301169050919050565b7f756e6f0000000000000000000000000000000000000000000000000000000000600082015250565b620008ad8162000765565b8114620008b957600080fd5b50565b620008c78162000779565b8114620008d357600080fd5b5056fe60806040526001600260006101000a81548160ff0219169083600481111562000051577f4e487b7100000000000000000000000000000000000000000000000000000000600052602160045260246000fd5b02179055503480156200006357600080fd5b5060405162000eb538038062000eb58339818101604052810190620000899190620002a9565b620000996200017160201b60201c565b6000806101000a81548173ffffffffffffffffffffffffffffffffffffffff021916908373ffffffffffffffffffffffffffffffffffffffff1602179055508060019080519060200190620000f092919062000179565b503060405162000100906200020a565b6200010c9190620002ff565b604051809103906000f08015801562000129573d6000803e3d6000fd5b50600560006101000a81548173ffffffffffffffffffffffffffffffffffffffff021916908373ffffffffffffffffffffffffffffffffffffffff16021790555050620004d4565b600030905090565b8280546200018790620003f9565b90600052602060002090601f016020900481019282620001ab5760008555620001f7565b82601f10620001c657805160ff1916838001178555620001f7565b82800160010185558215620001f7579182015b82811115620001f6578251825591602001919060010190620001d9565b5b50905062000206919062000218565b5090565b61050280620009b383390190565b5b808211156200023357600081600090555060010162000219565b5090565b60006200024e620002488462000345565b6200031c565b9050828152602081018484840111156200026757600080fd5b62000274848285620003c3565b509392505050565b600082601f8301126200028e57600080fd5b8151620002a084826020860162000237565b91505092915050565b600060208284031215620002bc57600080fd5b600082015167ffffffffffffffff811115620002d757600080fd5b620002e5848285016200027c565b91505092915050565b620002f9816200039b565b82525050565b6000602082019050620003166000830184620002ee565b92915050565b6000620003286200033b565b90506200033682826200042f565b919050565b6000604051905090565b600067ffffffffffffffff82111562000363576200036262000494565b5b6200036e82620004c3565b9050602081019050919050565b600073ffffffffffffffffffffffffffffffffffffffff82169050919050565b6000620003a882620003af565b9050919050565b6000620003bc826200037b565b9050919050565b60005b83811015620003e3578082015181840152602081019050620003c6565b83811115620003f3576000848401525b50505050565b600060028204905060018216806200041257607f821691505b6020821081141562000429576200042862000465565b5b50919050565b6200043a82620004c3565b810181811067ffffffffffffffff821117156200045c576200045b62000494565b5b80604052505050565b7f4e487b7100000000000000000000000000000000000000000000000000000000600052602260045260246000fd5b7f4e487b7100000000000000000000000000000000000000000000000000000000600052604160045260246000fd5b6000601f19601f8301169050919050565b6104cf80620004e46000396000f3fe608060405234801561001057600080fd5b506004361061004c5760003560e01c80635ad06080146100515780637a7c053f14610081578063d317a6631461009f578063eeabe2a5146100bd575b600080fd5b61006b6004803603810190610066919061024b565b6100db565b60405161007891906102f5565b60405180910390f35b610089610173565b604051610096919061032b565b60405180910390f35b6100a7610205565b6040516100b491906102da565b60405180910390f35b6100c561020d565b6040516100d291906102da565b60405180910390f35b6000600560009054906101000a900473ffffffffffffffffffffffffffffffffffffffff1673ffffffffffffffffffffffffffffffffffffffff166389b09de7836040518263ffffffff1660e01b81526004016101389190610310565b600060405180830381600087803b15801561015257600080fd5b505af1158015610166573d6000803e3d6000fd5b5050505060019050919050565b60606001805461018290610410565b80601f01602080910402602001604051908101604052809291908181526020018280546101ae90610410565b80156101fb5780601f106101d0576101008083540402835291602001916101fb565b820191906000526020600020905b8154815290600101906020018083116101de57829003601f168201915b5050505050905090565b600030905090565b60008060009054906101000a900473ffffffffffffffffffffffffffffffffffffffff16905090565b60008135905061024581610482565b92915050565b60006020828403121561025d57600080fd5b600061026b84828501610236565b91505092915050565b61027d81610369565b82525050565b61028c8161037b565b82525050565b61029b816103b9565b82525050565b60006102ac8261034d565b6102b68185610358565b93506102c68185602086016103dd565b6102cf81610471565b840191505092915050565b60006020820190506102ef6000830184610274565b92915050565b600060208201905061030a6000830184610283565b92915050565b60006020820190506103256000830184610292565b92915050565b6000602082019050818103600083015261034581846102a1565b905092915050565b600081519050919050565b600082825260208201905092915050565b600061037482610399565b9050919050565b60008115159050919050565b600061039282610369565b9050919050565b600073ffffffffffffffffffffffffffffffffffffffff82169050919050565b60006103c4826103cb565b9050919050565b60006103d682610399565b9050919050565b60005b838110156103fb5780820151818401526020810190506103e0565b8381111561040a576000848401525b50505050565b6000600282049050600182168061042857607f821691505b6020821081141561043c5761043b610442565b5b50919050565b7f4e487b7100000000000000000000000000000000000000000000000000000000600052602260045260246000fd5b6000601f19601f8301169050919050565b61048b81610387565b811461049657600080fd5b5056fea2646970667358221220305c43de23513ff35a2a38ddb9a949412e10c722aca6990302697b5bafa295d564736f6c63430008010033608060405234801561001057600080fd5b5060405161050238038061050283398181016040528101906100329190610090565b806000800160006101000a81548173ffffffffffffffffffffffffffffffffffffffff021916908373ffffffffffffffffffffffffffffffffffffffff16021790555050610114565b60008151905061008a816100fd565b92915050565b6000602082840312156100a257600080fd5b60006100b08482850161007b565b91505092915050565b60006100c4826100dd565b9050919050565b60006100d6826100b9565b9050919050565b600073ffffffffffffffffffffffffffffffffffffffff82169050919050565b610106816100cb565b811461011157600080fd5b50565b6103df806101236000396000f3fe608060405234801561001057600080fd5b50600436106100415760003560e01c80631f7b6d321461004657806329092d0e1461006457806389b09de714610080575b600080fd5b61004e61009c565b60405161005b9190610312565b60405180910390f35b61007e600480360381019061007991906102da565b6100a1565b005b61009a600480360381019061009591906102da565b610186565b005b600090565b600060010160008273ffffffffffffffffffffffffffffffffffffffff1663eeabe2a56040518163ffffffff1660e01b815260040160206040518083038186803b1580156100ee57600080fd5b505afa158015610102573d6000803e3d6000fd5b505050506040513d601f19601f8201168201806040525081019061012691906102b1565b73ffffffffffffffffffffffffffffffffffffffff1673ffffffffffffffffffffffffffffffffffffffff16815260200190815260200160002060006101000a81549073ffffffffffffffffffffffffffffffffffffffff021916905550565b80600060010160008373ffffffffffffffffffffffffffffffffffffffff1663eeabe2a56040518163ffffffff1660e01b815260040160206040518083038186803b1580156101d457600080fd5b505afa1580156101e8573d6000803e3d6000fd5b505050506040513d601f19601f8201168201806040525081019061020c91906102b1565b73ffffffffffffffffffffffffffffffffffffffff1673ffffffffffffffffffffffffffffffffffffffff16815260200190815260200160002060006101000a81548173ffffffffffffffffffffffffffffffffffffffff021916908373ffffffffffffffffffffffffffffffffffffffff16021790555050565b6000815190506102968161037b565b92915050565b6000813590506102ab81610392565b92915050565b6000602082840312156102c357600080fd5b60006102d184828501610287565b91505092915050565b6000602082840312156102ec57600080fd5b60006102fa8482850161029c565b91505092915050565b61030c81610371565b82525050565b60006020820190506103276000830184610303565b92915050565b600061033882610351565b9050919050565b600061034a8261032d565b9050919050565b600073ffffffffffffffffffffffffffffffffffffffff82169050919050565b6000819050919050565b6103848161032d565b811461038f57600080fd5b50565b61039b8161033f565b81146103a657600080fd5b5056fea26469706673582212204e68937ca11db17947e7c2373d92b0b318318d1f25b3a0f4c36c65fab685959d64736f6c63430008010033608060405234801561001057600080fd5b506103ed806100206000396000f3fe608060405234801561001057600080fd5b50600436106100415760003560e01c80632584ac94146100465780637a7c053f14610076578063eeabe2a514610094575b600080fd5b610060600480360381019061005b91906101c9565b6100b2565b60405161006d9190610264565b60405180910390f35b61007e6100f9565b60405161008b919061027f565b60405180910390f35b61009c61018b565b6040516100a99190610249565b60405180910390f35b6000816000806101000a81548173ffffffffffffffffffffffffffffffffffffffff021916908373ffffffffffffffffffffffffffffffffffffffff160217905550919050565b6060600180546101089061032e565b80601f01602080910402602001604051908101604052809291908181526020018280546101349061032e565b80156101815780601f1061015657610100808354040283529160200191610181565b820191906000526020600020905b81548152906001019060200180831161016457829003601f168201915b5050505050905090565b60008060009054906101000a900473ffffffffffffffffffffffffffffffffffffffff16905090565b6000813590506101c3816103a0565b92915050565b6000602082840312156101db57600080fd5b60006101e9848285016101b4565b91505092915050565b6101fb816102bd565b82525050565b61020a816102cf565b82525050565b600061021b826102a1565b61022581856102ac565b93506102358185602086016102fb565b61023e8161038f565b840191505092915050565b600060208201905061025e60008301846101f2565b92915050565b60006020820190506102796000830184610201565b92915050565b600060208201905081810360008301526102998184610210565b905092915050565b600081519050919050565b600082825260208201905092915050565b60006102c8826102db565b9050919050565b60008115159050919050565b600073ffffffffffffffffffffffffffffffffffffffff82169050919050565b60005b838110156103195780820151818401526020810190506102fe565b83811115610328576000848401525b50505050565b6000600282049050600182168061034657607f821691505b6020821081141561035a57610359610360565b5b50919050565b7f4e487b7100000000000000000000000000000000000000000000000000000000600052602260045260246000fd5b6000601f19601f8301169050919050565b6103a9816102bd565b81146103b457600080fd5b5056fea2646970667358221220db0e7c04220934699eef90aab61328176cd38064cab41fe199ae0f5b7e4847d364736f6c63430008010033a2646970667358221220c1c212081863d287055a7630f6744485b915b89edbf6fa4661d5bcf4ccda008764736f6c63430008010033",
			"opcodes": "PUSH1 0x80 PUSH1 0x40 MSTORE CALLVALUE DUP1 ISZERO PUSH2 0x10 JUMPI PUSH1 0x0 DUP1 REVERT JUMPDEST POP PUSH2 0x1BCE DUP1 PUSH2 0x20 PUSH1 0x0 CODECOPY PUSH1 0x0 RETURN INVALID PUSH1 0x80 PUSH1 0x40 MSTORE CALLVALUE DUP1 ISZERO PUSH3 0x11 JUMPI PUSH1 0x0 DUP1 REVERT JUMPDEST POP PUSH1 0x4 CALLDATASIZE LT PUSH3 0x46 JUMPI PUSH1 0x0 CALLDATALOAD PUSH1 0xE0 SHR DUP1 PUSH4 0x1A275051 EQ PUSH3 0x4B JUMPI DUP1 PUSH4 0xBECBA4F8 EQ PUSH3 0x6D JUMPI DUP1 PUSH4 0xF8A8FD6D EQ PUSH3 0x8F JUMPI JUMPDEST PUSH1 0x0 DUP1 REVERT JUMPDEST PUSH3 0x55 PUSH3 0x9B JUMP JUMPDEST PUSH1 0x40 MLOAD PUSH3 0x64 SWAP2 SWAP1 PUSH3 0x6A4 JUMP JUMPDEST PUSH1 0x40 MLOAD DUP1 SWAP2 SUB SWAP1 RETURN JUMPDEST PUSH3 0x77 PUSH3 0x149 JUMP JUMPDEST PUSH1 0x40 MLOAD PUSH3 0x86 SWAP2 SWAP1 PUSH3 0x66A JUMP JUMPDEST PUSH1 0x40 MLOAD DUP1 SWAP2 SUB SWAP1 RETURN JUMPDEST PUSH3 0x99 PUSH3 0x1F3 JUMP JUMPDEST STOP JUMPDEST PUSH1 0x60 PUSH1 0x0 DUP1 SLOAD SWAP1 PUSH2 0x100 EXP SWAP1 DIV PUSH20 0xFFFFFFFFFFFFFFFFFFFFFFFFFFFFFFFFFFFFFFFF AND PUSH20 0xFFFFFFFFFFFFFFFFFFFFFFFFFFFFFFFFFFFFFFFF AND PUSH4 0x7A7C053F PUSH1 0x40 MLOAD DUP2 PUSH4 0xFFFFFFFF AND PUSH1 0xE0 SHL DUP2 MSTORE PUSH1 0x4 ADD PUSH1 0x0 PUSH1 0x40 MLOAD DUP1 DUP4 SUB DUP2 DUP7 DUP1 EXTCODESIZE ISZERO DUP1 ISZERO PUSH3 0x104 JUMPI PUSH1 0x0 DUP1 REVERT JUMPDEST POP GAS STATICCALL ISZERO DUP1 ISZERO PUSH3 0x119 JUMPI RETURNDATASIZE PUSH1 0x0 DUP1 RETURNDATACOPY RETURNDATASIZE PUSH1 0x0 REVERT JUMPDEST POP POP POP POP PUSH1 0x40 MLOAD RETURNDATASIZE PUSH1 0x0 DUP3 RETURNDATACOPY RETURNDATASIZE PUSH1 0x1F NOT PUSH1 0x1F DUP3 ADD AND DUP3 ADD DUP1 PUSH1 0x40 MSTORE POP DUP2 ADD SWAP1 PUSH3 0x144 SWAP2 SWAP1 PUSH3 0x59B JUMP JUMPDEST SWAP1 POP SWAP1 JUMP JUMPDEST PUSH1 0x0 DUP1 PUSH1 0x0 SWAP1 SLOAD SWAP1 PUSH2 0x100 EXP SWAP1 DIV PUSH20 0xFFFFFFFFFFFFFFFFFFFFFFFFFFFFFFFFFFFFFFFF AND PUSH20 0xFFFFFFFFFFFFFFFFFFFFFFFFFFFFFFFFFFFFFFFF AND PUSH4 0xEEABE2A5 PUSH1 0x40 MLOAD DUP2 PUSH4 0xFFFFFFFF AND PUSH1 0xE0 SHL DUP2 MSTORE PUSH1 0x4 ADD PUSH1 0x20 PUSH1 0x40 MLOAD DUP1 DUP4 SUB DUP2 DUP7 DUP1 EXTCODESIZE ISZERO DUP1 ISZERO PUSH3 0x1B3 JUMPI PUSH1 0x0 DUP1 REVERT JUMPDEST POP GAS STATICCALL ISZERO DUP1 ISZERO PUSH3 0x1C8 JUMPI RETURNDATASIZE PUSH1 0x0 DUP1 RETURNDATACOPY RETURNDATASIZE PUSH1 0x0 REVERT JUMPDEST POP POP POP POP PUSH1 0x40 MLOAD RETURNDATASIZE PUSH1 0x1F NOT PUSH1 0x1F DUP3 ADD AND DUP3 ADD DUP1 PUSH1 0x40 MSTORE POP DUP2 ADD SWAP1 PUSH3 0x1EE SWAP2 SWAP1 PUSH3 0x543 JUMP JUMPDEST SWAP1 POP SWAP1 JUMP JUMPDEST PUSH3 0x1FD PUSH3 0x20B JUMP JUMPDEST POP PUSH3 0x208 PUSH3 0x28A JUMP JUMPDEST POP JUMP JUMPDEST PUSH1 0x0 PUSH1 0x40 MLOAD PUSH3 0x21B SWAP1 PUSH3 0x487 JUMP JUMPDEST PUSH3 0x226 SWAP1 PUSH3 0x6C8 JUMP JUMPDEST PUSH1 0x40 MLOAD DUP1 SWAP2 SUB SWAP1 PUSH1 0x0 CREATE DUP1 ISZERO DUP1 ISZERO PUSH3 0x243 JUMPI RETURNDATASIZE PUSH1 0x0 DUP1 RETURNDATACOPY RETURNDATASIZE PUSH1 0x0 REVERT JUMPDEST POP PUSH1 0x0 DUP1 PUSH2 0x100 EXP DUP2 SLOAD DUP2 PUSH20 0xFFFFFFFFFFFFFFFFFFFFFFFFFFFFFFFFFFFFFFFF MUL NOT AND SWAP1 DUP4 PUSH20 0xFFFFFFFFFFFFFFFFFFFFFFFFFFFFFFFFFFFFFFFF AND MUL OR SWAP1 SSTORE POP PUSH1 0x1 SWAP1 POP SWAP1 JUMP JUMPDEST PUSH1 0x0 PUSH1 0x40 MLOAD PUSH3 0x29A SWAP1 PUSH3 0x495 JUMP JUMPDEST PUSH1 0x40 MLOAD DUP1 SWAP2 SUB SWAP1 PUSH1 0x0 CREATE DUP1 ISZERO DUP1 ISZERO PUSH3 0x2B7 JUMPI RETURNDATASIZE PUSH1 0x0 DUP1 RETURNDATACOPY RETURNDATASIZE PUSH1 0x0 REVERT JUMPDEST POP PUSH1 0x1 PUSH1 0x0 PUSH2 0x100 EXP DUP2 SLOAD DUP2 PUSH20 0xFFFFFFFFFFFFFFFFFFFFFFFFFFFFFFFFFFFFFFFF MUL NOT AND SWAP1 DUP4 PUSH20 0xFFFFFFFFFFFFFFFFFFFFFFFFFFFFFFFFFFFFFFFF AND MUL OR SWAP1 SSTORE POP PUSH1 0x1 PUSH1 0x0 SWAP1 SLOAD SWAP1 PUSH2 0x100 EXP SWAP1 DIV PUSH20 0xFFFFFFFFFFFFFFFFFFFFFFFFFFFFFFFFFFFFFFFF AND PUSH20 0xFFFFFFFFFFFFFFFFFFFFFFFFFFFFFFFFFFFFFFFF AND PUSH4 0x2584AC94 CALLER PUSH1 0x40 MLOAD DUP3 PUSH4 0xFFFFFFFF AND PUSH1 0xE0 SHL DUP2 MSTORE PUSH1 0x4 ADD PUSH3 0x355 SWAP2 SWAP1 PUSH3 0x66A JUMP JUMPDEST PUSH1 0x20 PUSH1 0x40 MLOAD DUP1 DUP4 SUB DUP2 PUSH1 0x0 DUP8 DUP1 EXTCODESIZE ISZERO DUP1 ISZERO PUSH3 0x370 JUMPI PUSH1 0x0 DUP1 REVERT JUMPDEST POP GAS CALL ISZERO DUP1 ISZERO PUSH3 0x385 JUMPI RETURNDATASIZE PUSH1 0x0 DUP1 RETURNDATACOPY RETURNDATASIZE PUSH1 0x0 REVERT JUMPDEST POP POP POP POP PUSH1 0x40 MLOAD RETURNDATASIZE PUSH1 0x1F NOT PUSH1 0x1F DUP3 ADD AND DUP3 ADD DUP1 PUSH1 0x40 MSTORE POP DUP2 ADD SWAP1 PUSH3 0x3AB SWAP2 SWAP1 PUSH3 0x56F JUMP JUMPDEST POP PUSH1 0x0 DUP1 SLOAD SWAP1 PUSH2 0x100 EXP SWAP1 DIV PUSH20 0xFFFFFFFFFFFFFFFFFFFFFFFFFFFFFFFFFFFFFFFF AND PUSH20 0xFFFFFFFFFFFFFFFFFFFFFFFFFFFFFFFFFFFFFFFF AND PUSH4 0x5AD06080 PUSH1 0x1 PUSH1 0x0 SWAP1 SLOAD SWAP1 PUSH2 0x100 EXP SWAP1 DIV PUSH20 0xFFFFFFFFFFFFFFFFFFFFFFFFFFFFFFFFFFFFFFFF AND PUSH1 0x40 MLOAD DUP3 PUSH4 0xFFFFFFFF AND PUSH1 0xE0 SHL DUP2 MSTORE PUSH1 0x4 ADD PUSH3 0x429 SWAP2 SWAP1 PUSH3 0x687 JUMP JUMPDEST PUSH1 0x20 PUSH1 0x40 MLOAD DUP1 DUP4 SUB DUP2 PUSH1 0x0 DUP8 DUP1 EXTCODESIZE ISZERO DUP1 ISZERO PUSH3 0x444 JUMPI PUSH1 0x0 DUP1 REVERT JUMPDEST POP GAS CALL ISZERO DUP1 ISZERO PUSH3 0x459 JUMPI RETURNDATASIZE PUSH1 0x0 DUP1 RETURNDATACOPY RETURNDATASIZE PUSH1 0x0 REVERT JUMPDEST POP POP POP POP PUSH1 0x40 MLOAD RETURNDATASIZE PUSH1 0x1F NOT PUSH1 0x1F DUP3 ADD AND DUP3 ADD DUP1 PUSH1 0x40 MSTORE POP DUP2 ADD SWAP1 PUSH3 0x47F SWAP2 SWAP1 PUSH3 0x56F JUMP JUMPDEST POP PUSH1 0x1 SWAP1 POP SWAP1 JUMP JUMPDEST PUSH2 0xEB5 DUP1 PUSH3 0x8D7 DUP4 CODECOPY ADD SWAP1 JUMP JUMPDEST PUSH2 0x40D DUP1 PUSH3 0x178C DUP4 CODECOPY ADD SWAP1 JUMP JUMPDEST PUSH1 0x0 PUSH3 0x4BA PUSH3 0x4B4 DUP5 PUSH3 0x713 JUMP JUMPDEST PUSH3 0x6EA JUMP JUMPDEST SWAP1 POP DUP3 DUP2 MSTORE PUSH1 0x20 DUP2 ADD DUP5 DUP5 DUP5 ADD GT ISZERO PUSH3 0x4D3 JUMPI PUSH1 0x0 DUP1 REVERT JUMPDEST PUSH3 0x4E0 DUP5 DUP3 DUP6 PUSH3 0x7CD JUMP JUMPDEST POP SWAP4 SWAP3 POP POP POP JUMP JUMPDEST PUSH1 0x0 DUP2 MLOAD SWAP1 POP PUSH3 0x4F9 DUP2 PUSH3 0x8A2 JUMP JUMPDEST SWAP3 SWAP2 POP POP JUMP JUMPDEST PUSH1 0x0 DUP2 MLOAD SWAP1 POP PUSH3 0x510 DUP2 PUSH3 0x8BC JUMP JUMPDEST SWAP3 SWAP2 POP POP JUMP JUMPDEST PUSH1 0x0 DUP3 PUSH1 0x1F DUP4 ADD SLT PUSH3 0x528 JUMPI PUSH1 0x0 DUP1 REVERT JUMPDEST DUP2 MLOAD PUSH3 0x53A DUP5 DUP3 PUSH1 0x20 DUP7 ADD PUSH3 0x4A3 JUMP JUMPDEST SWAP2 POP POP SWAP3 SWAP2 POP POP JUMP JUMPDEST PUSH1 0x0 PUSH1 0x20 DUP3 DUP5 SUB SLT ISZERO PUSH3 0x556 JUMPI PUSH1 0x0 DUP1 REVERT JUMPDEST PUSH1 0x0 PUSH3 0x566 DUP5 DUP3 DUP6 ADD PUSH3 0x4E8 JUMP JUMPDEST SWAP2 POP POP SWAP3 SWAP2 POP POP JUMP JUMPDEST PUSH1 0x0 PUSH1 0x20 DUP3 DUP5 SUB SLT ISZERO PUSH3 0x582 JUMPI PUSH1 0x0 DUP1 REVERT JUMPDEST PUSH1 0x0 PUSH3 0x592 DUP5 DUP3 DUP6 ADD PUSH3 0x4FF JUMP JUMPDEST SWAP2 POP POP SWAP3 SWAP2 POP POP JUMP JUMPDEST PUSH1 0x0 PUSH1 0x20 DUP3 DUP5 SUB SLT ISZERO PUSH3 0x5AE JUMPI PUSH1 0x0 DUP1 REVERT JUMPDEST PUSH1 0x0 DUP3 ADD MLOAD PUSH8 0xFFFFFFFFFFFFFFFF DUP2 GT ISZERO PUSH3 0x5C9 JUMPI PUSH1 0x0 DUP1 REVERT JUMPDEST PUSH3 0x5D7 DUP5 DUP3 DUP6 ADD PUSH3 0x516 JUMP JUMPDEST SWAP2 POP POP SWAP3 SWAP2 POP POP JUMP JUMPDEST PUSH3 0x5EB DUP2 PUSH3 0x765 JUMP JUMPDEST DUP3 MSTORE POP POP JUMP JUMPDEST PUSH3 0x5FC DUP2 PUSH3 0x7A5 JUMP JUMPDEST DUP3 MSTORE POP POP JUMP JUMPDEST PUSH1 0x0 PUSH3 0x60F DUP3 PUSH3 0x749 JUMP JUMPDEST PUSH3 0x61B DUP2 DUP6 PUSH3 0x754 JUMP JUMPDEST SWAP4 POP PUSH3 0x62D DUP2 DUP6 PUSH1 0x20 DUP7 ADD PUSH3 0x7CD JUMP JUMPDEST PUSH3 0x638 DUP2 PUSH3 0x868 JUMP JUMPDEST DUP5 ADD SWAP2 POP POP SWAP3 SWAP2 POP POP JUMP JUMPDEST PUSH1 0x0 PUSH3 0x652 PUSH1 0x3 DUP4 PUSH3 0x754 JUMP JUMPDEST SWAP2 POP PUSH3 0x65F DUP3 PUSH3 0x879 JUMP JUMPDEST PUSH1 0x20 DUP3 ADD SWAP1 POP SWAP2 SWAP1 POP JUMP JUMPDEST PUSH1 0x0 PUSH1 0x20 DUP3 ADD SWAP1 POP PUSH3 0x681 PUSH1 0x0 DUP4 ADD DUP5 PUSH3 0x5E0 JUMP JUMPDEST SWAP3 SWAP2 POP POP JUMP JUMPDEST PUSH1 0x0 PUSH1 0x20 DUP3 ADD SWAP1 POP PUSH3 0x69E PUSH1 0x0 DUP4 ADD DUP5 PUSH3 0x5F1 JUMP JUMPDEST SWAP3 SWAP2 POP POP JUMP JUMPDEST PUSH1 0x0 PUSH1 0x20 DUP3 ADD SWAP1 POP DUP2 DUP2 SUB PUSH1 0x0 DUP4 ADD MSTORE PUSH3 0x6C0 DUP2 DUP5 PUSH3 0x602 JUMP JUMPDEST SWAP1 POP SWAP3 SWAP2 POP POP JUMP JUMPDEST PUSH1 0x0 PUSH1 0x20 DUP3 ADD SWAP1 POP DUP2 DUP2 SUB PUSH1 0x0 DUP4 ADD MSTORE PUSH3 0x6E3 DUP2 PUSH3 0x643 JUMP JUMPDEST SWAP1 POP SWAP2 SWAP1 POP JUMP JUMPDEST PUSH1 0x0 PUSH3 0x6F6 PUSH3 0x709 JUMP JUMPDEST SWAP1 POP PUSH3 0x704 DUP3 DUP3 PUSH3 0x803 JUMP JUMPDEST SWAP2 SWAP1 POP JUMP JUMPDEST PUSH1 0x0 PUSH1 0x40 MLOAD SWAP1 POP SWAP1 JUMP JUMPDEST PUSH1 0x0 PUSH8 0xFFFFFFFFFFFFFFFF DUP3 GT ISZERO PUSH3 0x731 JUMPI PUSH3 0x730 PUSH3 0x839 JUMP JUMPDEST JUMPDEST PUSH3 0x73C DUP3 PUSH3 0x868 JUMP JUMPDEST SWAP1 POP PUSH1 0x20 DUP2 ADD SWAP1 POP SWAP2 SWAP1 POP JUMP JUMPDEST PUSH1 0x0 DUP2 MLOAD SWAP1 POP SWAP2 SWAP1 POP JUMP JUMPDEST PUSH1 0x0 DUP3 DUP3 MSTORE PUSH1 0x20 DUP3 ADD SWAP1 POP SWAP3 SWAP2 POP POP JUMP JUMPDEST PUSH1 0x0 PUSH3 0x772 DUP3 PUSH3 0x785 JUMP JUMPDEST SWAP1 POP SWAP2 SWAP1 POP JUMP JUMPDEST PUSH1 0x0 DUP2 ISZERO ISZERO SWAP1 POP SWAP2 SWAP1 POP JUMP JUMPDEST PUSH1 0x0 PUSH20 0xFFFFFFFFFFFFFFFFFFFFFFFFFFFFFFFFFFFFFFFF DUP3 AND SWAP1 POP SWAP2 SWAP1 POP JUMP JUMPDEST PUSH1 0x0 PUSH3 0x7B2 DUP3 PUSH3 0x7B9 JUMP JUMPDEST SWAP1 POP SWAP2 SWAP1 POP JUMP JUMPDEST PUSH1 0x0 PUSH3 0x7C6 DUP3 PUSH3 0x785 JUMP JUMPDEST SWAP1 POP SWAP2 SWAP1 POP JUMP JUMPDEST PUSH1 0x0 JUMPDEST DUP4 DUP2 LT ISZERO PUSH3 0x7ED JUMPI DUP1 DUP3 ADD MLOAD DUP2 DUP5 ADD MSTORE PUSH1 0x20 DUP2 ADD SWAP1 POP PUSH3 0x7D0 JUMP JUMPDEST DUP4 DUP2 GT ISZERO PUSH3 0x7FD JUMPI PUSH1 0x0 DUP5 DUP5 ADD MSTORE JUMPDEST POP POP POP POP JUMP JUMPDEST PUSH3 0x80E DUP3 PUSH3 0x868 JUMP JUMPDEST DUP2 ADD DUP2 DUP2 LT PUSH8 0xFFFFFFFFFFFFFFFF DUP3 GT OR ISZERO PUSH3 0x830 JUMPI PUSH3 0x82F PUSH3 0x839 JUMP JUMPDEST JUMPDEST DUP1 PUSH1 0x40 MSTORE POP POP POP JUMP JUMPDEST PUSH32 0x4E487B7100000000000000000000000000000000000000000000000000000000 PUSH1 0x0 MSTORE PUSH1 0x41 PUSH1 0x4 MSTORE PUSH1 0x24 PUSH1 0x0 REVERT JUMPDEST PUSH1 0x0 PUSH1 0x1F NOT PUSH1 0x1F DUP4 ADD AND SWAP1 POP SWAP2 SWAP1 POP JUMP JUMPDEST PUSH32 0x756E6F0000000000000000000000000000000000000000000000000000000000 PUSH1 0x0 DUP3 ADD MSTORE POP JUMP JUMPDEST PUSH3 0x8AD DUP2 PUSH3 0x765 JUMP JUMPDEST DUP2 EQ PUSH3 0x8B9 JUMPI PUSH1 0x0 DUP1 REVERT JUMPDEST POP JUMP JUMPDEST PUSH3 0x8C7 DUP2 PUSH3 0x779 JUMP JUMPDEST DUP2 EQ PUSH3 0x8D3 JUMPI PUSH1 0x0 DUP1 REVERT JUMPDEST POP JUMP INVALID PUSH1 0x80 PUSH1 0x40 MSTORE PUSH1 0x1 PUSH1 0x2 PUSH1 0x0 PUSH2 0x100 EXP DUP2 SLOAD DUP2 PUSH1 0xFF MUL NOT AND SWAP1 DUP4 PUSH1 0x4 DUP2 GT ISZERO PUSH3 0x51 JUMPI PUSH32 0x4E487B7100000000000000000000000000000000000000000000000000000000 PUSH1 0x0 MSTORE PUSH1 0x21 PUSH1 0x4 MSTORE PUSH1 0x24 PUSH1 0x0 REVERT JUMPDEST MUL OR SWAP1 SSTORE POP CALLVALUE DUP1 ISZERO PUSH3 0x63 JUMPI PUSH1 0x0 DUP1 REVERT JUMPDEST POP PUSH1 0x40 MLOAD PUSH3 0xEB5 CODESIZE SUB DUP1 PUSH3 0xEB5 DUP4 CODECOPY DUP2 DUP2 ADD PUSH1 0x40 MSTORE DUP2 ADD SWAP1 PUSH3 0x89 SWAP2 SWAP1 PUSH3 0x2A9 JUMP JUMPDEST PUSH3 0x99 PUSH3 0x171 PUSH1 0x20 SHL PUSH1 0x20 SHR JUMP JUMPDEST PUSH1 0x0 DUP1 PUSH2 0x100 EXP DUP2 SLOAD DUP2 PUSH20 0xFFFFFFFFFFFFFFFFFFFFFFFFFFFFFFFFFFFFFFFF MUL NOT AND SWAP1 DUP4 PUSH20 0xFFFFFFFFFFFFFFFFFFFFFFFFFFFFFFFFFFFFFFFF AND MUL OR SWAP1 SSTORE POP DUP1 PUSH1 0x1 SWAP1 DUP1 MLOAD SWAP1 PUSH1 0x20 ADD SWAP1 PUSH3 0xF0 SWAP3 SWAP2 SWAP1 PUSH3 0x179 JUMP JUMPDEST POP ADDRESS PUSH1 0x40 MLOAD PUSH3 0x100 SWAP1 PUSH3 0x20A JUMP JUMPDEST PUSH3 0x10C SWAP2 SWAP1 PUSH3 0x2FF JUMP JUMPDEST PUSH1 0x40 MLOAD DUP1 SWAP2 SUB SWAP1 PUSH1 0x0 CREATE DUP1 ISZERO DUP1 ISZERO PUSH3 0x129 JUMPI RETURNDATASIZE PUSH1 0x0 DUP1 RETURNDATACOPY RETURNDATASIZE PUSH1 0x0 REVERT JUMPDEST POP PUSH1 0x5 PUSH1 0x0 PUSH2 0x100 EXP DUP2 SLOAD DUP2 PUSH20 0xFFFFFFFFFFFFFFFFFFFFFFFFFFFFFFFFFFFFFFFF MUL NOT AND SWAP1 DUP4 PUSH20 0xFFFFFFFFFFFFFFFFFFFFFFFFFFFFFFFFFFFFFFFF AND MUL OR SWAP1 SSTORE POP POP PUSH3 0x4D4 JUMP JUMPDEST PUSH1 0x0 ADDRESS SWAP1 POP SWAP1 JUMP JUMPDEST DUP3 DUP1 SLOAD PUSH3 0x187 SWAP1 PUSH3 0x3F9 JUMP JUMPDEST SWAP1 PUSH1 0x0 MSTORE PUSH1 0x20 PUSH1 0x0 KECCAK256 SWAP1 PUSH1 0x1F ADD PUSH1 0x20 SWAP1 DIV DUP2 ADD SWAP3 DUP3 PUSH3 0x1AB JUMPI PUSH1 0x0 DUP6 SSTORE PUSH3 0x1F7 JUMP JUMPDEST DUP3 PUSH1 0x1F LT PUSH3 0x1C6 JUMPI DUP1 MLOAD PUSH1 0xFF NOT AND DUP4 DUP1 ADD OR DUP6 SSTORE PUSH3 0x1F7 JUMP JUMPDEST DUP3 DUP1 ADD PUSH1 0x1 ADD DUP6 SSTORE DUP3 ISZERO PUSH3 0x1F7 JUMPI SWAP2 DUP3 ADD JUMPDEST DUP3 DUP2 GT ISZERO PUSH3 0x1F6 JUMPI DUP3 MLOAD DUP3 SSTORE SWAP2 PUSH1 0x20 ADD SWAP2 SWAP1 PUSH1 0x1 ADD SWAP1 PUSH3 0x1D9 JUMP JUMPDEST JUMPDEST POP SWAP1 POP PUSH3 0x206 SWAP2 SWAP1 PUSH3 0x218 JUMP JUMPDEST POP SWAP1 JUMP JUMPDEST PUSH2 0x502 DUP1 PUSH3 0x9B3 DUP4 CODECOPY ADD SWAP1 JUMP JUMPDEST JUMPDEST DUP1 DUP3 GT ISZERO PUSH3 0x233 JUMPI PUSH1 0x0 DUP2 PUSH1 0x0 SWAP1 SSTORE POP PUSH1 0x1 ADD PUSH3 0x219 JUMP JUMPDEST POP SWAP1 JUMP JUMPDEST PUSH1 0x0 PUSH3 0x24E PUSH3 0x248 DUP5 PUSH3 0x345 JUMP JUMPDEST PUSH3 0x31C JUMP JUMPDEST SWAP1 POP DUP3 DUP2 MSTORE PUSH1 0x20 DUP2 ADD DUP5 DUP5 DUP5 ADD GT ISZERO PUSH3 0x267 JUMPI PUSH1 0x0 DUP1 REVERT JUMPDEST PUSH3 0x274 DUP5 DUP3 DUP6 PUSH3 0x3C3 JUMP JUMPDEST POP SWAP4 SWAP3 POP POP POP JUMP JUMPDEST PUSH1 0x0 DUP3 PUSH1 0x1F DUP4 ADD SLT PUSH3 0x28E JUMPI PUSH1 0x0 DUP1 REVERT JUMPDEST DUP2 MLOAD PUSH3 0x2A0 DUP5 DUP3 PUSH1 0x20 DUP7 ADD PUSH3 0x237 JUMP JUMPDEST SWAP2 POP POP SWAP3 SWAP2 POP POP JUMP JUMPDEST PUSH1 0x0 PUSH1 0x20 DUP3 DUP5 SUB SLT ISZERO PUSH3 0x2BC JUMPI PUSH1 0x0 DUP1 REVERT JUMPDEST PUSH1 0x0 DUP3 ADD MLOAD PUSH8 0xFFFFFFFFFFFFFFFF DUP2 GT ISZERO PUSH3 0x2D7 JUMPI PUSH1 0x0 DUP1 REVERT JUMPDEST PUSH3 0x2E5 DUP5 DUP3 DUP6 ADD PUSH3 0x27C JUMP JUMPDEST SWAP2 POP POP SWAP3 SWAP2 POP POP JUMP JUMPDEST PUSH3 0x2F9 DUP2 PUSH3 0x39B JUMP JUMPDEST DUP3 MSTORE POP POP JUMP JUMPDEST PUSH1 0x0 PUSH1 0x20 DUP3 ADD SWAP1 POP PUSH3 0x316 PUSH1 0x0 DUP4 ADD DUP5 PUSH3 0x2EE JUMP JUMPDEST SWAP3 SWAP2 POP POP JUMP JUMPDEST PUSH1 0x0 PUSH3 0x328 PUSH3 0x33B JUMP JUMPDEST SWAP1 POP PUSH3 0x336 DUP3 DUP3 PUSH3 0x42F JUMP JUMPDEST SWAP2 SWAP1 POP JUMP JUMPDEST PUSH1 0x0 PUSH1 0x40 MLOAD SWAP1 POP SWAP1 JUMP JUMPDEST PUSH1 0x0 PUSH8 0xFFFFFFFFFFFFFFFF DUP3 GT ISZERO PUSH3 0x363 JUMPI PUSH3 0x362 PUSH3 0x494 JUMP JUMPDEST JUMPDEST PUSH3 0x36E DUP3 PUSH3 0x4C3 JUMP JUMPDEST SWAP1 POP PUSH1 0x20 DUP2 ADD SWAP1 POP SWAP2 SWAP1 POP JUMP JUMPDEST PUSH1 0x0 PUSH20 0xFFFFFFFFFFFFFFFFFFFFFFFFFFFFFFFFFFFFFFFF DUP3 AND SWAP1 POP SWAP2 SWAP1 POP JUMP JUMPDEST PUSH1 0x0 PUSH3 0x3A8 DUP3 PUSH3 0x3AF JUMP JUMPDEST SWAP1 POP SWAP2 SWAP1 POP JUMP JUMPDEST PUSH1 0x0 PUSH3 0x3BC DUP3 PUSH3 0x37B JUMP JUMPDEST SWAP1 POP SWAP2 SWAP1 POP JUMP JUMPDEST PUSH1 0x0 JUMPDEST DUP4 DUP2 LT ISZERO PUSH3 0x3E3 JUMPI DUP1 DUP3 ADD MLOAD DUP2 DUP5 ADD MSTORE PUSH1 0x20 DUP2 ADD SWAP1 POP PUSH3 0x3C6 JUMP JUMPDEST DUP4 DUP2 GT ISZERO PUSH3 0x3F3 JUMPI PUSH1 0x0 DUP5 DUP5 ADD MSTORE JUMPDEST POP POP POP POP JUMP JUMPDEST PUSH1 0x0 PUSH1 0x2 DUP3 DIV SWAP1 POP PUSH1 0x1 DUP3 AND DUP1 PUSH3 0x412 JUMPI PUSH1 0x7F DUP3 AND SWAP2 POP JUMPDEST PUSH1 0x20 DUP3 LT DUP2 EQ ISZERO PUSH3 0x429 JUMPI PUSH3 0x428 PUSH3 0x465 JUMP JUMPDEST JUMPDEST POP SWAP2 SWAP1 POP JUMP JUMPDEST PUSH3 0x43A DUP3 PUSH3 0x4C3 JUMP JUMPDEST DUP2 ADD DUP2 DUP2 LT PUSH8 0xFFFFFFFFFFFFFFFF DUP3 GT OR ISZERO PUSH3 0x45C JUMPI PUSH3 0x45B PUSH3 0x494 JUMP JUMPDEST JUMPDEST DUP1 PUSH1 0x40 MSTORE POP POP POP JUMP JUMPDEST PUSH32 0x4E487B7100000000000000000000000000000000000000000000000000000000 PUSH1 0x0 MSTORE PUSH1 0x22 PUSH1 0x4 MSTORE PUSH1 0x24 PUSH1 0x0 REVERT JUMPDEST PUSH32 0x4E487B7100000000000000000000000000000000000000000000000000000000 PUSH1 0x0 MSTORE PUSH1 0x41 PUSH1 0x4 MSTORE PUSH1 0x24 PUSH1 0x0 REVERT JUMPDEST PUSH1 0x0 PUSH1 0x1F NOT PUSH1 0x1F DUP4 ADD AND SWAP1 POP SWAP2 SWAP1 POP JUMP JUMPDEST PUSH2 0x4CF DUP1 PUSH3 0x4E4 PUSH1 0x0 CODECOPY PUSH1 0x0 RETURN INVALID PUSH1 0x80 PUSH1 0x40 MSTORE CALLVALUE DUP1 ISZERO PUSH2 0x10 JUMPI PUSH1 0x0 DUP1 REVERT JUMPDEST POP PUSH1 0x4 CALLDATASIZE LT PUSH2 0x4C JUMPI PUSH1 0x0 CALLDATALOAD PUSH1 0xE0 SHR DUP1 PUSH4 0x5AD06080 EQ PUSH2 0x51 JUMPI DUP1 PUSH4 0x7A7C053F EQ PUSH2 0x81 JUMPI DUP1 PUSH4 0xD317A663 EQ PUSH2 0x9F JUMPI DUP1 PUSH4 0xEEABE2A5 EQ PUSH2 0xBD JUMPI JUMPDEST PUSH1 0x0 DUP1 REVERT JUMPDEST PUSH2 0x6B PUSH1 0x4 DUP1 CALLDATASIZE SUB DUP2 ADD SWAP1 PUSH2 0x66 SWAP2 SWAP1 PUSH2 0x24B JUMP JUMPDEST PUSH2 0xDB JUMP JUMPDEST PUSH1 0x40 MLOAD PUSH2 0x78 SWAP2 SWAP1 PUSH2 0x2F5 JUMP JUMPDEST PUSH1 0x40 MLOAD DUP1 SWAP2 SUB SWAP1 RETURN JUMPDEST PUSH2 0x89 PUSH2 0x173 JUMP JUMPDEST PUSH1 0x40 MLOAD PUSH2 0x96 SWAP2 SWAP1 PUSH2 0x32B JUMP JUMPDEST PUSH1 0x40 MLOAD DUP1 SWAP2 SUB SWAP1 RETURN JUMPDEST PUSH2 0xA7 PUSH2 0x205 JUMP JUMPDEST PUSH1 0x40 MLOAD PUSH2 0xB4 SWAP2 SWAP1 PUSH2 0x2DA JUMP JUMPDEST PUSH1 0x40 MLOAD DUP1 SWAP2 SUB SWAP1 RETURN JUMPDEST PUSH2 0xC5 PUSH2 0x20D JUMP JUMPDEST PUSH1 0x40 MLOAD PUSH2 0xD2 SWAP2 SWAP1 PUSH2 0x2DA JUMP JUMPDEST PUSH1 0x40 MLOAD DUP1 SWAP2 SUB SWAP1 RETURN JUMPDEST PUSH1 0x0 PUSH1 0x5 PUSH1 0x0 SWAP1 SLOAD SWAP1 PUSH2 0x100 EXP SWAP1 DIV PUSH20 0xFFFFFFFFFFFFFFFFFFFFFFFFFFFFFFFFFFFFFFFF AND PUSH20 0xFFFFFFFFFFFFFFFFFFFFFFFFFFFFFFFFFFFFFFFF AND PUSH4 0x89B09DE7 DUP4 PUSH1 0x40 MLOAD DUP3 PUSH4 0xFFFFFFFF AND PUSH1 0xE0 SHL DUP2 MSTORE PUSH1 0x4 ADD PUSH2 0x138 SWAP2 SWAP1 PUSH2 0x310 JUMP JUMPDEST PUSH1 0x0 PUSH1 0x40 MLOAD DUP1 DUP4 SUB DUP2 PUSH1 0x0 DUP8 DUP1 EXTCODESIZE ISZERO DUP1 ISZERO PUSH2 0x152 JUMPI PUSH1 0x0 DUP1 REVERT JUMPDEST POP GAS CALL ISZERO DUP1 ISZERO PUSH2 0x166 JUMPI RETURNDATASIZE PUSH1 0x0 DUP1 RETURNDATACOPY RETURNDATASIZE PUSH1 0x0 REVERT JUMPDEST POP POP POP POP PUSH1 0x1 SWAP1 POP SWAP2 SWAP1 POP JUMP JUMPDEST PUSH1 0x60 PUSH1 0x1 DUP1 SLOAD PUSH2 0x182 SWAP1 PUSH2 0x410 JUMP JUMPDEST DUP1 PUSH1 0x1F ADD PUSH1 0x20 DUP1 SWAP2 DIV MUL PUSH1 0x20 ADD PUSH1 0x40 MLOAD SWAP1 DUP2 ADD PUSH1 0x40 MSTORE DUP1 SWAP3 SWAP2 SWAP1 DUP2 DUP2 MSTORE PUSH1 0x20 ADD DUP3 DUP1 SLOAD PUSH2 0x1AE SWAP1 PUSH2 0x410 JUMP JUMPDEST DUP1 ISZERO PUSH2 0x1FB JUMPI DUP1 PUSH1 0x1F LT PUSH2 0x1D0 JUMPI PUSH2 0x100 DUP1 DUP4 SLOAD DIV MUL DUP4 MSTORE SWAP2 PUSH1 0x20 ADD SWAP2 PUSH2 0x1FB JUMP JUMPDEST DUP3 ADD SWAP2 SWAP1 PUSH1 0x0 MSTORE PUSH1 0x20 PUSH1 0x0 KECCAK256 SWAP1 JUMPDEST DUP2 SLOAD DUP2 MSTORE SWAP1 PUSH1 0x1 ADD SWAP1 PUSH1 0x20 ADD DUP1 DUP4 GT PUSH2 0x1DE JUMPI DUP3 SWAP1 SUB PUSH1 0x1F AND DUP3 ADD SWAP2 JUMPDEST POP POP POP POP POP SWAP1 POP SWAP1 JUMP JUMPDEST PUSH1 0x0 ADDRESS SWAP1 POP SWAP1 JUMP JUMPDEST PUSH1 0x0 DUP1 PUSH1 0x0 SWAP1 SLOAD SWAP1 PUSH2 0x100 EXP SWAP1 DIV PUSH20 0xFFFFFFFFFFFFFFFFFFFFFFFFFFFFFFFFFFFFFFFF AND SWAP1 POP SWAP1 JUMP JUMPDEST PUSH1 0x0 DUP2 CALLDATALOAD SWAP1 POP PUSH2 0x245 DUP2 PUSH2 0x482 JUMP JUMPDEST SWAP3 SWAP2 POP POP JUMP JUMPDEST PUSH1 0x0 PUSH1 0x20 DUP3 DUP5 SUB SLT ISZERO PUSH2 0x25D JUMPI PUSH1 0x0 DUP1 REVERT JUMPDEST PUSH1 0x0 PUSH2 0x26B DUP5 DUP3 DUP6 ADD PUSH2 0x236 JUMP JUMPDEST SWAP2 POP POP SWAP3 SWAP2 POP POP JUMP JUMPDEST PUSH2 0x27D DUP2 PUSH2 0x369 JUMP JUMPDEST DUP3 MSTORE POP POP JUMP JUMPDEST PUSH2 0x28C DUP2 PUSH2 0x37B JUMP JUMPDEST DUP3 MSTORE POP POP JUMP JUMPDEST PUSH2 0x29B DUP2 PUSH2 0x3B9 JUMP JUMPDEST DUP3 MSTORE POP POP JUMP JUMPDEST PUSH1 0x0 PUSH2 0x2AC DUP3 PUSH2 0x34D JUMP JUMPDEST PUSH2 0x2B6 DUP2 DUP6 PUSH2 0x358 JUMP JUMPDEST SWAP4 POP PUSH2 0x2C6 DUP2 DUP6 PUSH1 0x20 DUP7 ADD PUSH2 0x3DD JUMP JUMPDEST PUSH2 0x2CF DUP2 PUSH2 0x471 JUMP JUMPDEST DUP5 ADD SWAP2 POP POP SWAP3 SWAP2 POP POP JUMP JUMPDEST PUSH1 0x0 PUSH1 0x20 DUP3 ADD SWAP1 POP PUSH2 0x2EF PUSH1 0x0 DUP4 ADD DUP5 PUSH2 0x274 JUMP JUMPDEST SWAP3 SWAP2 POP POP JUMP JUMPDEST PUSH1 0x0 PUSH1 0x20 DUP3 ADD SWAP1 POP PUSH2 0x30A PUSH1 0x0 DUP4 ADD DUP5 PUSH2 0x283 JUMP JUMPDEST SWAP3 SWAP2 POP POP JUMP JUMPDEST PUSH1 0x0 PUSH1 0x20 DUP3 ADD SWAP1 POP PUSH2 0x325 PUSH1 0x0 DUP4 ADD DUP5 PUSH2 0x292 JUMP JUMPDEST SWAP3 SWAP2 POP POP JUMP JUMPDEST PUSH1 0x0 PUSH1 0x20 DUP3 ADD SWAP1 POP DUP2 DUP2 SUB PUSH1 0x0 DUP4 ADD MSTORE PUSH2 0x345 DUP2 DUP5 PUSH2 0x2A1 JUMP JUMPDEST SWAP1 POP SWAP3 SWAP2 POP POP JUMP JUMPDEST PUSH1 0x0 DUP2 MLOAD SWAP1 POP SWAP2 SWAP1 POP JUMP JUMPDEST PUSH1 0x0 DUP3 DUP3 MSTORE PUSH1 0x20 DUP3 ADD SWAP1 POP SWAP3 SWAP2 POP POP JUMP JUMPDEST PUSH1 0x0 PUSH2 0x374 DUP3 PUSH2 0x399 JUMP JUMPDEST SWAP1 POP SWAP2 SWAP1 POP JUMP JUMPDEST PUSH1 0x0 DUP2 ISZERO ISZERO SWAP1 POP SWAP2 SWAP1 POP JUMP JUMPDEST PUSH1 0x0 PUSH2 0x392 DUP3 PUSH2 0x369 JUMP JUMPDEST SWAP1 POP SWAP2 SWAP1 POP JUMP JUMPDEST PUSH1 0x0 PUSH20 0xFFFFFFFFFFFFFFFFFFFFFFFFFFFFFFFFFFFFFFFF DUP3 AND SWAP1 POP SWAP2 SWAP1 POP JUMP JUMPDEST PUSH1 0x0 PUSH2 0x3C4 DUP3 PUSH2 0x3CB JUMP JUMPDEST SWAP1 POP SWAP2 SWAP1 POP JUMP JUMPDEST PUSH1 0x0 PUSH2 0x3D6 DUP3 PUSH2 0x399 JUMP JUMPDEST SWAP1 POP SWAP2 SWAP1 POP JUMP JUMPDEST PUSH1 0x0 JUMPDEST DUP4 DUP2 LT ISZERO PUSH2 0x3FB JUMPI DUP1 DUP3 ADD MLOAD DUP2 DUP5 ADD MSTORE PUSH1 0x20 DUP2 ADD SWAP1 POP PUSH2 0x3E0 JUMP JUMPDEST DUP4 DUP2 GT ISZERO PUSH2 0x40A JUMPI PUSH1 0x0 DUP5 DUP5 ADD MSTORE JUMPDEST POP POP POP POP JUMP JUMPDEST PUSH1 0x0 PUSH1 0x2 DUP3 DIV SWAP1 POP PUSH1 0x1 DUP3 AND DUP1 PUSH2 0x428 JUMPI PUSH1 0x7F DUP3 AND SWAP2 POP JUMPDEST PUSH1 0x20 DUP3 LT DUP2 EQ ISZERO PUSH2 0x43C JUMPI PUSH2 0x43B PUSH2 0x442 JUMP JUMPDEST JUMPDEST POP SWAP2 SWAP1 POP JUMP JUMPDEST PUSH32 0x4E487B7100000000000000000000000000000000000000000000000000000000 PUSH1 0x0 MSTORE PUSH1 0x22 PUSH1 0x4 MSTORE PUSH1 0x24 PUSH1 0x0 REVERT JUMPDEST PUSH1 0x0 PUSH1 0x1F NOT PUSH1 0x1F DUP4 ADD AND SWAP1 POP SWAP2 SWAP1 POP JUMP JUMPDEST PUSH2 0x48B DUP2 PUSH2 0x387 JUMP JUMPDEST DUP2 EQ PUSH2 0x496 JUMPI PUSH1 0x0 DUP1 REVERT JUMPDEST POP JUMP INVALID LOG2 PUSH5 0x6970667358 0x22 SLT KECCAK256 ADDRESS 0x5C NUMBER 0xDE 0x23 MLOAD EXTCODEHASH RETURN GAS 0x2A CODESIZE 0xDD 0xB9 0xA9 0x49 COINBASE 0x2E LT 0xC7 0x22 0xAC 0xA6 SWAP10 SUB MUL PUSH10 0x7B5BAFA295D564736F6C PUSH4 0x43000801 STOP CALLER PUSH1 0x80 PUSH1 0x40 MSTORE CALLVALUE DUP1 ISZERO PUSH2 0x10 JUMPI PUSH1 0x0 DUP1 REVERT JUMPDEST POP PUSH1 0x40 MLOAD PUSH2 0x502 CODESIZE SUB DUP1 PUSH2 0x502 DUP4 CODECOPY DUP2 DUP2 ADD PUSH1 0x40 MSTORE DUP2 ADD SWAP1 PUSH2 0x32 SWAP2 SWAP1 PUSH2 0x90 JUMP JUMPDEST DUP1 PUSH1 0x0 DUP1 ADD PUSH1 0x0 PUSH2 0x100 EXP DUP2 SLOAD DUP2 PUSH20 0xFFFFFFFFFFFFFFFFFFFFFFFFFFFFFFFFFFFFFFFF MUL NOT AND SWAP1 DUP4 PUSH20 0xFFFFFFFFFFFFFFFFFFFFFFFFFFFFFFFFFFFFFFFF AND MUL OR SWAP1 SSTORE POP POP PUSH2 0x114 JUMP JUMPDEST PUSH1 0x0 DUP2 MLOAD SWAP1 POP PUSH2 0x8A DUP2 PUSH2 0xFD JUMP JUMPDEST SWAP3 SWAP2 POP POP JUMP JUMPDEST PUSH1 0x0 PUSH1 0x20 DUP3 DUP5 SUB SLT ISZERO PUSH2 0xA2 JUMPI PUSH1 0x0 DUP1 REVERT JUMPDEST PUSH1 0x0 PUSH2 0xB0 DUP5 DUP3 DUP6 ADD PUSH2 0x7B JUMP JUMPDEST SWAP2 POP POP SWAP3 SWAP2 POP POP JUMP JUMPDEST PUSH1 0x0 PUSH2 0xC4 DUP3 PUSH2 0xDD JUMP JUMPDEST SWAP1 POP SWAP2 SWAP1 POP JUMP JUMPDEST PUSH1 0x0 PUSH2 0xD6 DUP3 PUSH2 0xB9 JUMP JUMPDEST SWAP1 POP SWAP2 SWAP1 POP JUMP JUMPDEST PUSH1 0x0 PUSH20 0xFFFFFFFFFFFFFFFFFFFFFFFFFFFFFFFFFFFFFFFF DUP3 AND SWAP1 POP SWAP2 SWAP1 POP JUMP JUMPDEST PUSH2 0x106 DUP2 PUSH2 0xCB JUMP JUMPDEST DUP2 EQ PUSH2 0x111 JUMPI PUSH1 0x0 DUP1 REVERT JUMPDEST POP JUMP JUMPDEST PUSH2 0x3DF DUP1 PUSH2 0x123 PUSH1 0x0 CODECOPY PUSH1 0x0 RETURN INVALID PUSH1 0x80 PUSH1 0x40 MSTORE CALLVALUE DUP1 ISZERO PUSH2 0x10 JUMPI PUSH1 0x0 DUP1 REVERT JUMPDEST POP PUSH1 0x4 CALLDATASIZE LT PUSH2 0x41 JUMPI PUSH1 0x0 CALLDATALOAD PUSH1 0xE0 SHR DUP1 PUSH4 0x1F7B6D32 EQ PUSH2 0x46 JUMPI DUP1 PUSH4 0x29092D0E EQ PUSH2 0x64 JUMPI DUP1 PUSH4 0x89B09DE7 EQ PUSH2 0x80 JUMPI JUMPDEST PUSH1 0x0 DUP1 REVERT JUMPDEST PUSH2 0x4E PUSH2 0x9C JUMP JUMPDEST PUSH1 0x40 MLOAD PUSH2 0x5B SWAP2 SWAP1 PUSH2 0x312 JUMP JUMPDEST PUSH1 0x40 MLOAD DUP1 SWAP2 SUB SWAP1 RETURN JUMPDEST PUSH2 0x7E PUSH1 0x4 DUP1 CALLDATASIZE SUB DUP2 ADD SWAP1 PUSH2 0x79 SWAP2 SWAP1 PUSH2 0x2DA JUMP JUMPDEST PUSH2 0xA1 JUMP JUMPDEST STOP JUMPDEST PUSH2 0x9A PUSH1 0x4 DUP1 CALLDATASIZE SUB DUP2 ADD SWAP1 PUSH2 0x95 SWAP2 SWAP1 PUSH2 0x2DA JUMP JUMPDEST PUSH2 0x186 JUMP JUMPDEST STOP JUMPDEST PUSH1 0x0 SWAP1 JUMP JUMPDEST PUSH1 0x0 PUSH1 0x1 ADD PUSH1 0x0 DUP3 PUSH20 0xFFFFFFFFFFFFFFFFFFFFFFFFFFFFFFFFFFFFFFFF AND PUSH4 0xEEABE2A5 PUSH1 0x40 MLOAD DUP2 PUSH4 0xFFFFFFFF AND PUSH1 0xE0 SHL DUP2 MSTORE PUSH1 0x4 ADD PUSH1 0x20 PUSH1 0x40 MLOAD DUP1 DUP4 SUB DUP2 DUP7 DUP1 EXTCODESIZE ISZERO DUP1 ISZERO PUSH2 0xEE JUMPI PUSH1 0x0 DUP1 REVERT JUMPDEST POP GAS STATICCALL ISZERO DUP1 ISZERO PUSH2 0x102 JUMPI RETURNDATASIZE PUSH1 0x0 DUP1 RETURNDATACOPY RETURNDATASIZE PUSH1 0x0 REVERT JUMPDEST POP POP POP POP PUSH1 0x40 MLOAD RETURNDATASIZE PUSH1 0x1F NOT PUSH1 0x1F DUP3 ADD AND DUP3 ADD DUP1 PUSH1 0x40 MSTORE POP DUP2 ADD SWAP1 PUSH2 0x126 SWAP2 SWAP1 PUSH2 0x2B1 JUMP JUMPDEST PUSH20 0xFFFFFFFFFFFFFFFFFFFFFFFFFFFFFFFFFFFFFFFF AND PUSH20 0xFFFFFFFFFFFFFFFFFFFFFFFFFFFFFFFFFFFFFFFF AND DUP2 MSTORE PUSH1 0x20 ADD SWAP1 DUP2 MSTORE PUSH1 0x20 ADD PUSH1 0x0 KECCAK256 PUSH1 0x0 PUSH2 0x100 EXP DUP2 SLOAD SWAP1 PUSH20 0xFFFFFFFFFFFFFFFFFFFFFFFFFFFFFFFFFFFFFFFF MUL NOT AND SWAP1 SSTORE POP JUMP JUMPDEST DUP1 PUSH1 0x0 PUSH1 0x1 ADD PUSH1 0x0 DUP4 PUSH20 0xFFFFFFFFFFFFFFFFFFFFFFFFFFFFFFFFFFFFFFFF AND PUSH4 0xEEABE2A5 PUSH1 0x40 MLOAD DUP2 PUSH4 0xFFFFFFFF AND PUSH1 0xE0 SHL DUP2 MSTORE PUSH1 0x4 ADD PUSH1 0x20 PUSH1 0x40 MLOAD DUP1 DUP4 SUB DUP2 DUP7 DUP1 EXTCODESIZE ISZERO DUP1 ISZERO PUSH2 0x1D4 JUMPI PUSH1 0x0 DUP1 REVERT JUMPDEST POP GAS STATICCALL ISZERO DUP1 ISZERO PUSH2 0x1E8 JUMPI RETURNDATASIZE PUSH1 0x0 DUP1 RETURNDATACOPY RETURNDATASIZE PUSH1 0x0 REVERT JUMPDEST POP POP POP POP PUSH1 0x40 MLOAD RETURNDATASIZE PUSH1 0x1F NOT PUSH1 0x1F DUP3 ADD AND DUP3 ADD DUP1 PUSH1 0x40 MSTORE POP DUP2 ADD SWAP1 PUSH2 0x20C SWAP2 SWAP1 PUSH2 0x2B1 JUMP JUMPDEST PUSH20 0xFFFFFFFFFFFFFFFFFFFFFFFFFFFFFFFFFFFFFFFF AND PUSH20 0xFFFFFFFFFFFFFFFFFFFFFFFFFFFFFFFFFFFFFFFF AND DUP2 MSTORE PUSH1 0x20 ADD SWAP1 DUP2 MSTORE PUSH1 0x20 ADD PUSH1 0x0 KECCAK256 PUSH1 0x0 PUSH2 0x100 EXP DUP2 SLOAD DUP2 PUSH20 0xFFFFFFFFFFFFFFFFFFFFFFFFFFFFFFFFFFFFFFFF MUL NOT AND SWAP1 DUP4 PUSH20 0xFFFFFFFFFFFFFFFFFFFFFFFFFFFFFFFFFFFFFFFF AND MUL OR SWAP1 SSTORE POP POP JUMP JUMPDEST PUSH1 0x0 DUP2 MLOAD SWAP1 POP PUSH2 0x296 DUP2 PUSH2 0x37B JUMP JUMPDEST SWAP3 SWAP2 POP POP JUMP JUMPDEST PUSH1 0x0 DUP2 CALLDATALOAD SWAP1 POP PUSH2 0x2AB DUP2 PUSH2 0x392 JUMP JUMPDEST SWAP3 SWAP2 POP POP JUMP JUMPDEST PUSH1 0x0 PUSH1 0x20 DUP3 DUP5 SUB SLT ISZERO PUSH2 0x2C3 JUMPI PUSH1 0x0 DUP1 REVERT JUMPDEST PUSH1 0x0 PUSH2 0x2D1 DUP5 DUP3 DUP6 ADD PUSH2 0x287 JUMP JUMPDEST SWAP2 POP POP SWAP3 SWAP2 POP POP JUMP JUMPDEST PUSH1 0x0 PUSH1 0x20 DUP3 DUP5 SUB SLT ISZERO PUSH2 0x2EC JUMPI PUSH1 0x0 DUP1 REVERT JUMPDEST PUSH1 0x0 PUSH2 0x2FA DUP5 DUP3 DUP6 ADD PUSH2 0x29C JUMP JUMPDEST SWAP2 POP POP SWAP3 SWAP2 POP POP JUMP JUMPDEST PUSH2 0x30C DUP2 PUSH2 0x371 JUMP JUMPDEST DUP3 MSTORE POP POP JUMP JUMPDEST PUSH1 0x0 PUSH1 0x20 DUP3 ADD SWAP1 POP PUSH2 0x327 PUSH1 0x0 DUP4 ADD DUP5 PUSH2 0x303 JUMP JUMPDEST SWAP3 SWAP2 POP POP JUMP JUMPDEST PUSH1 0x0 PUSH2 0x338 DUP3 PUSH2 0x351 JUMP JUMPDEST SWAP1 POP SWAP2 SWAP1 POP JUMP JUMPDEST PUSH1 0x0 PUSH2 0x34A DUP3 PUSH2 0x32D JUMP JUMPDEST SWAP1 POP SWAP2 SWAP1 POP JUMP JUMPDEST PUSH1 0x0 PUSH20 0xFFFFFFFFFFFFFFFFFFFFFFFFFFFFFFFFFFFFFFFF DUP3 AND SWAP1 POP SWAP2 SWAP1 POP JUMP JUMPDEST PUSH1 0x0 DUP2 SWAP1 POP SWAP2 SWAP1 POP JUMP JUMPDEST PUSH2 0x384 DUP2 PUSH2 0x32D JUMP JUMPDEST DUP2 EQ PUSH2 0x38F JUMPI PUSH1 0x0 DUP1 REVERT JUMPDEST POP JUMP JUMPDEST PUSH2 0x39B DUP2 PUSH2 0x33F JUMP JUMPDEST DUP2 EQ PUSH2 0x3A6 JUMPI PUSH1 0x0 DUP1 REVERT JUMPDEST POP JUMP INVALID LOG2 PUSH5 0x6970667358 0x22 SLT KECCAK256 0x4E PUSH9 0x937CA11DB17947E7C2 CALLDATACOPY RETURNDATASIZE SWAP3 0xB0 0xB3 XOR BALANCE DUP14 0x1F 0x25 0xB3 LOG0 DELEGATECALL 0xC3 PUSH13 0x65FAB685959D64736F6C634300 ADDMOD ADD STOP CALLER PUSH1 0x80 PUSH1 0x40 MSTORE CALLVALUE DUP1 ISZERO PUSH2 0x10 JUMPI PUSH1 0x0 DUP1 REVERT JUMPDEST POP PUSH2 0x3ED DUP1 PUSH2 0x20 PUSH1 0x0 CODECOPY PUSH1 0x0 RETURN INVALID PUSH1 0x80 PUSH1 0x40 MSTORE CALLVALUE DUP1 ISZERO PUSH2 0x10 JUMPI PUSH1 0x0 DUP1 REVERT JUMPDEST POP PUSH1 0x4 CALLDATASIZE LT PUSH2 0x41 JUMPI PUSH1 0x0 CALLDATALOAD PUSH1 0xE0 SHR DUP1 PUSH4 0x2584AC94 EQ PUSH2 0x46 JUMPI DUP1 PUSH4 0x7A7C053F EQ PUSH2 0x76 JUMPI DUP1 PUSH4 0xEEABE2A5 EQ PUSH2 0x94 JUMPI JUMPDEST PUSH1 0x0 DUP1 REVERT JUMPDEST PUSH2 0x60 PUSH1 0x4 DUP1 CALLDATASIZE SUB DUP2 ADD SWAP1 PUSH2 0x5B SWAP2 SWAP1 PUSH2 0x1C9 JUMP JUMPDEST PUSH2 0xB2 JUMP JUMPDEST PUSH1 0x40 MLOAD PUSH2 0x6D SWAP2 SWAP1 PUSH2 0x264 JUMP JUMPDEST PUSH1 0x40 MLOAD DUP1 SWAP2 SUB SWAP1 RETURN JUMPDEST PUSH2 0x7E PUSH2 0xF9 JUMP JUMPDEST PUSH1 0x40 MLOAD PUSH2 0x8B SWAP2 SWAP1 PUSH2 0x27F JUMP JUMPDEST PUSH1 0x40 MLOAD DUP1 SWAP2 SUB SWAP1 RETURN JUMPDEST PUSH2 0x9C PUSH2 0x18B JUMP JUMPDEST PUSH1 0x40 MLOAD PUSH2 0xA9 SWAP2 SWAP1 PUSH2 0x249 JUMP JUMPDEST PUSH1 0x40 MLOAD DUP1 SWAP2 SUB SWAP1 RETURN JUMPDEST PUSH1 0x0 DUP2 PUSH1 0x0 DUP1 PUSH2 0x100 EXP DUP2 SLOAD DUP2 PUSH20 0xFFFFFFFFFFFFFFFFFFFFFFFFFFFFFFFFFFFFFFFF MUL NOT AND SWAP1 DUP4 PUSH20 0xFFFFFFFFFFFFFFFFFFFFFFFFFFFFFFFFFFFFFFFF AND MUL OR SWAP1 SSTORE POP SWAP2 SWAP1 POP JUMP JUMPDEST PUSH1 0x60 PUSH1 0x1 DUP1 SLOAD PUSH2 0x108 SWAP1 PUSH2 0x32E JUMP JUMPDEST DUP1 PUSH1 0x1F ADD PUSH1 0x20 DUP1 SWAP2 DIV MUL PUSH1 0x20 ADD PUSH1 0x40 MLOAD SWAP1 DUP2 ADD PUSH1 0x40 MSTORE DUP1 SWAP3 SWAP2 SWAP1 DUP2 DUP2 MSTORE PUSH1 0x20 ADD DUP3 DUP1 SLOAD PUSH2 0x134 SWAP1 PUSH2 0x32E JUMP JUMPDEST DUP1 ISZERO PUSH2 0x181 JUMPI DUP1 PUSH1 0x1F LT PUSH2 0x156 JUMPI PUSH2 0x100 DUP1 DUP4 SLOAD DIV MUL DUP4 MSTORE SWAP2 PUSH1 0x20 ADD SWAP2 PUSH2 0x181 JUMP JUMPDEST DUP3 ADD SWAP2 SWAP1 PUSH1 0x0 MSTORE PUSH1 0x20 PUSH1 0x0 KECCAK256 SWAP1 JUMPDEST DUP2 SLOAD DUP2 MSTORE SWAP1 PUSH1 0x1 ADD SWAP1 PUSH1 0x20 ADD DUP1 DUP4 GT PUSH2 0x164 JUMPI DUP3 SWAP1 SUB PUSH1 0x1F AND DUP3 ADD SWAP2 JUMPDEST POP POP POP POP POP SWAP1 POP SWAP1 JUMP JUMPDEST PUSH1 0x0 DUP1 PUSH1 0x0 SWAP1 SLOAD SWAP1 PUSH2 0x100 EXP SWAP1 DIV PUSH20 0xFFFFFFFFFFFFFFFFFFFFFFFFFFFFFFFFFFFFFFFF AND SWAP1 POP SWAP1 JUMP JUMPDEST PUSH1 0x0 DUP2 CALLDATALOAD SWAP1 POP PUSH2 0x1C3 DUP2 PUSH2 0x3A0 JUMP JUMPDEST SWAP3 SWAP2 POP POP JUMP JUMPDEST PUSH1 0x0 PUSH1 0x20 DUP3 DUP5 SUB SLT ISZERO PUSH2 0x1DB JUMPI PUSH1 0x0 DUP1 REVERT JUMPDEST PUSH1 0x0 PUSH2 0x1E9 DUP5 DUP3 DUP6 ADD PUSH2 0x1B4 JUMP JUMPDEST SWAP2 POP POP SWAP3 SWAP2 POP POP JUMP JUMPDEST PUSH2 0x1FB DUP2 PUSH2 0x2BD JUMP JUMPDEST DUP3 MSTORE POP POP JUMP JUMPDEST PUSH2 0x20A DUP2 PUSH2 0x2CF JUMP JUMPDEST DUP3 MSTORE POP POP JUMP JUMPDEST PUSH1 0x0 PUSH2 0x21B DUP3 PUSH2 0x2A1 JUMP JUMPDEST PUSH2 0x225 DUP2 DUP6 PUSH2 0x2AC JUMP JUMPDEST SWAP4 POP PUSH2 0x235 DUP2 DUP6 PUSH1 0x20 DUP7 ADD PUSH2 0x2FB JUMP JUMPDEST PUSH2 0x23E DUP2 PUSH2 0x38F JUMP JUMPDEST DUP5 ADD SWAP2 POP POP SWAP3 SWAP2 POP POP JUMP JUMPDEST PUSH1 0x0 PUSH1 0x20 DUP3 ADD SWAP1 POP PUSH2 0x25E PUSH1 0x0 DUP4 ADD DUP5 PUSH2 0x1F2 JUMP JUMPDEST SWAP3 SWAP2 POP POP JUMP JUMPDEST PUSH1 0x0 PUSH1 0x20 DUP3 ADD SWAP1 POP PUSH2 0x279 PUSH1 0x0 DUP4 ADD DUP5 PUSH2 0x201 JUMP JUMPDEST SWAP3 SWAP2 POP POP JUMP JUMPDEST PUSH1 0x0 PUSH1 0x20 DUP3 ADD SWAP1 POP DUP2 DUP2 SUB PUSH1 0x0 DUP4 ADD MSTORE PUSH2 0x299 DUP2 DUP5 PUSH2 0x210 JUMP JUMPDEST SWAP1 POP SWAP3 SWAP2 POP POP JUMP JUMPDEST PUSH1 0x0 DUP2 MLOAD SWAP1 POP SWAP2 SWAP1 POP JUMP JUMPDEST PUSH1 0x0 DUP3 DUP3 MSTORE PUSH1 0x20 DUP3 ADD SWAP1 POP SWAP3 SWAP2 POP POP JUMP JUMPDEST PUSH1 0x0 PUSH2 0x2C8 DUP3 PUSH2 0x2DB JUMP JUMPDEST SWAP1 POP SWAP2 SWAP1 POP JUMP JUMPDEST PUSH1 0x0 DUP2 ISZERO ISZERO SWAP1 POP SWAP2 SWAP1 POP JUMP JUMPDEST PUSH1 0x0 PUSH20 0xFFFFFFFFFFFFFFFFFFFFFFFFFFFFFFFFFFFFFFFF DUP3 AND SWAP1 POP SWAP2 SWAP1 POP JUMP JUMPDEST PUSH1 0x0 JUMPDEST DUP4 DUP2 LT ISZERO PUSH2 0x319 JUMPI DUP1 DUP3 ADD MLOAD DUP2 DUP5 ADD MSTORE PUSH1 0x20 DUP2 ADD SWAP1 POP PUSH2 0x2FE JUMP JUMPDEST DUP4 DUP2 GT ISZERO PUSH2 0x328 JUMPI PUSH1 0x0 DUP5 DUP5 ADD MSTORE JUMPDEST POP POP POP POP JUMP JUMPDEST PUSH1 0x0 PUSH1 0x2 DUP3 DIV SWAP1 POP PUSH1 0x1 DUP3 AND DUP1 PUSH2 0x346 JUMPI PUSH1 0x7F DUP3 AND SWAP2 POP JUMPDEST PUSH1 0x20 DUP3 LT DUP2 EQ ISZERO PUSH2 0x35A JUMPI PUSH2 0x359 PUSH2 0x360 JUMP JUMPDEST JUMPDEST POP SWAP2 SWAP1 POP JUMP JUMPDEST PUSH32 0x4E487B7100000000000000000000000000000000000000000000000000000000 PUSH1 0x0 MSTORE PUSH1 0x22 PUSH1 0x4 MSTORE PUSH1 0x24 PUSH1 0x0 REVERT JUMPDEST PUSH1 0x0 PUSH1 0x1F NOT PUSH1 0x1F DUP4 ADD AND SWAP1 POP SWAP2 SWAP1 POP JUMP JUMPDEST PUSH2 0x3A9 DUP2 PUSH2 0x2BD JUMP JUMPDEST DUP2 EQ PUSH2 0x3B4 JUMPI PUSH1 0x0 DUP1 REVERT JUMPDEST POP JUMP INVALID LOG2 PUSH5 0x6970667358 0x22 SLT KECCAK256 0xDB 0xE PUSH29 0x4220934699EEF90AAB61328176CD38064CAB41FE199AE0F5B7E4847D3 PUSH5 0x736F6C6343 STOP ADDMOD ADD STOP CALLER LOG2 PUSH5 0x6970667358 0x22 SLT KECCAK256 0xC1 0xC2 SLT ADDMOD XOR PUSH4 0xD287055A PUSH23 0x30F6744485B915B89EDBF6FA4661D5BCF4CCDA00876473 PUSH16 0x6C634300080100330000000000000000 "
		},
		"gasEstimates": {
			"creation": {
				"codeDepositCost": "1423600",
				"executionCost": "1486",
				"totalCost": "1425086"
			},
			"external": {
				"getGrupoAddresss()": "infinite",
				"getGrupoApodo()": "infinite",
				"test()": "infinite"
			},
			"internal": {
				"generateUser()": "infinite",
				"initGrupo()": "infinite"
			}
		},
		"methodIdentifiers": {
			"getGrupoAddresss()": "becba4f8",
			"getGrupoApodo()": "1a275051",
			"test()": "f8a8fd6d"
		}
	},
	"abi": [
		{
			"inputs": [],
			"stateMutability": "nonpayable",
			"type": "constructor"
		},
		{
			"inputs": [],
			"name": "getGrupoAddresss",
			"outputs": [
				{
					"internalType": "address",
					"name": "",
					"type": "address"
				}
			],
			"stateMutability": "view",
			"type": "function"
		},
		{
			"inputs": [],
			"name": "getGrupoApodo",
			"outputs": [
				{
					"internalType": "string",
					"name": "",
					"type": "string"
				}
			],
			"stateMutability": "view",
			"type": "function"
		},
		{
			"inputs": [],
			"name": "test",
			"outputs": [],
			"stateMutability": "nonpayable",
			"type": "function"
		}
	]
}